{
	"contracts/InvestmentAdvice.sol": {
		"InvestmentAdvice": {
			"abi": [
				{
					"inputs": [
						{
							"internalType": "uint256",
							"name": "_investmentAmount",
							"type": "uint256"
						},
						{
							"internalType": "uint256",
							"name": "_duration",
							"type": "uint256"
						},
						{
							"internalType": "uint256",
							"name": "_expectation",
							"type": "uint256"
						}
					],
					"stateMutability": "payable",
					"type": "constructor"
				},
				{
					"anonymous": false,
					"inputs": [
						{
							"components": [
								{
									"internalType": "address",
									"name": "InvestorAddress",
									"type": "address"
								},
								{
									"internalType": "uint256",
									"name": "InvestorStake",
									"type": "uint256"
								},
								{
									"internalType": "uint256",
									"name": "InvestmentAmount",
									"type": "uint256"
								},
								{
									"internalType": "uint256",
									"name": "TimeDuration",
									"type": "uint256"
								},
								{
									"internalType": "uint256",
									"name": "ExpectedReturnInPercentage",
									"type": "uint256"
								},
								{
									"internalType": "uint16",
									"name": "RecommendationsCounter",
									"type": "uint16"
								},
								{
									"internalType": "enum InvestmentAdvice.InvestmentAdviceContractStatus",
									"name": "status",
									"type": "uint8"
								}
							],
							"indexed": false,
							"internalType": "struct InvestmentAdvice.Investor",
							"name": "_Investor",
							"type": "tuple"
						}
					],
					"name": "NewAdviceRequested",
					"type": "event"
				},
				{
					"inputs": [
						{
							"internalType": "uint16",
							"name": "",
							"type": "uint16"
						}
					],
					"name": "InvestorAdvisorsMapping",
					"outputs": [
						{
							"internalType": "address",
							"name": "AdvisorAddress",
							"type": "address"
						},
						{
							"internalType": "uint256",
							"name": "AdvisorStake",
							"type": "uint256"
						},
						{
							"internalType": "string",
							"name": "StockRecommendation",
							"type": "string"
						},
						{
							"internalType": "bool",
							"name": "AcceptedStatus",
							"type": "bool"
						}
					],
					"stateMutability": "view",
					"type": "function"
				},
				{
					"inputs": [],
					"name": "NativeBalance",
					"outputs": [
						{
							"internalType": "uint256",
							"name": "",
							"type": "uint256"
						}
					],
					"stateMutability": "view",
					"type": "function"
				},
				{
					"inputs": [],
					"name": "_Investor",
					"outputs": [
						{
							"internalType": "address",
							"name": "InvestorAddress",
							"type": "address"
						},
						{
							"internalType": "uint256",
							"name": "InvestorStake",
							"type": "uint256"
						},
						{
							"internalType": "uint256",
							"name": "InvestmentAmount",
							"type": "uint256"
						},
						{
							"internalType": "uint256",
							"name": "TimeDuration",
							"type": "uint256"
						},
						{
							"internalType": "uint256",
							"name": "ExpectedReturnInPercentage",
							"type": "uint256"
						},
						{
							"internalType": "uint16",
							"name": "RecommendationsCounter",
							"type": "uint16"
						},
						{
							"internalType": "enum InvestmentAdvice.InvestmentAdviceContractStatus",
							"name": "status",
							"type": "uint8"
						}
					],
					"stateMutability": "view",
					"type": "function"
				},
				{
					"inputs": [
						{
							"internalType": "string",
							"name": "_stockRecommendation",
							"type": "string"
						}
					],
					"name": "makeRecommendation",
					"outputs": [],
					"stateMutability": "payable",
					"type": "function"
				},
				{
					"inputs": [
						{
							"internalType": "uint16",
							"name": "_advisorIndex",
							"type": "uint16"
						}
					],
					"name": "recommendationAccepted",
					"outputs": [],
					"stateMutability": "nonpayable",
					"type": "function"
				}
			],
			"devdoc": {
				"kind": "dev",
				"methods": {},
				"version": 1
			},
			"evm": {
				"assembly": "    /* \"contracts/InvestmentAdvice.sol\":60:5097  contract InvestmentAdvice {\r... */\n  mstore(0x40, 0x80)\n    /* \"contracts/InvestmentAdvice.sol\":207:228  address(this).balance */\n  selfbalance\n    /* \"contracts/InvestmentAdvice.sol\":176:228  uint256 public NativeBalance = address(this).balance */\n  0x00\n  sstore\n    /* \"contracts/InvestmentAdvice.sol\":1035:1609  constructor (uint256 _investmentAmount, uint256 _duration, uint256 _expectation) payable {\r... */\n  mload(0x40)\n  sub(codesize, bytecodeSize)\n  dup1\n  bytecodeSize\n  dup4\n  codecopy\n  dup2\n  dup2\n  add\n  0x40\n  mstore\n  dup2\n  add\n  swap1\n  tag_1\n  swap2\n  swap1\n  tag_2\n  jump\t// in\ntag_1:\n    /* \"contracts/InvestmentAdvice.sol\":1159:1160  1 */\n  0x01\n    /* \"contracts/InvestmentAdvice.sol\":1147:1156  msg.value */\n  callvalue\n    /* \"contracts/InvestmentAdvice.sol\":1147:1160  msg.value >=1 */\n  lt\n  iszero\n    /* \"contracts/InvestmentAdvice.sol\":1139:1223  require(msg.value >=1, \"Investor requesting advice needs to stake at least 1 ether\") */\n  tag_5\n  jumpi\n  mload(0x40)\n  0x08c379a000000000000000000000000000000000000000000000000000000000\n  dup2\n  mstore\n  0x04\n  add\n  tag_6\n  swap1\n  tag_7\n  jump\t// in\ntag_6:\n  mload(0x40)\n  dup1\n  swap2\n  sub\n  swap1\n  revert\ntag_5:\n    /* \"contracts/InvestmentAdvice.sol\":1240:1264  address _investorAddress */\n  0x00\n    /* \"contracts/InvestmentAdvice.sol\":1267:1277  msg.sender */\n  caller\n    /* \"contracts/InvestmentAdvice.sol\":1240:1277  address _investorAddress = msg.sender */\n  swap1\n  pop\n    /* \"contracts/InvestmentAdvice.sol\":1292:1314  uint256 _investorStake */\n  0x00\n    /* \"contracts/InvestmentAdvice.sol\":1317:1326  msg.value */\n  callvalue\n    /* \"contracts/InvestmentAdvice.sol\":1292:1326  uint256 _investorStake = msg.value */\n  swap1\n  pop\n    /* \"contracts/InvestmentAdvice.sol\":1341:1370  uint16 _recommendationCounter */\n  0x00\n    /* \"contracts/InvestmentAdvice.sol\":1401:1548  Investor(_investorAddress, _investorStake, _investmentAmount, _duration, _expectation, _recommendationCounter, InvestmentAdviceContractStatus.Open) */\n  mload(0x40)\n  dup1\n  0xe0\n  add\n  0x40\n  mstore\n  dup1\n    /* \"contracts/InvestmentAdvice.sol\":1410:1426  _investorAddress */\n  dup5\n    /* \"contracts/InvestmentAdvice.sol\":1401:1548  Investor(_investorAddress, _investorStake, _investmentAmount, _duration, _expectation, _recommendationCounter, InvestmentAdviceContractStatus.Open) */\n  0xffffffffffffffffffffffffffffffffffffffff\n  and\n  dup2\n  mstore\n  0x20\n  add\n    /* \"contracts/InvestmentAdvice.sol\":1428:1442  _investorStake */\n  dup4\n    /* \"contracts/InvestmentAdvice.sol\":1401:1548  Investor(_investorAddress, _investorStake, _investmentAmount, _duration, _expectation, _recommendationCounter, InvestmentAdviceContractStatus.Open) */\n  dup2\n  mstore\n  0x20\n  add\n    /* \"contracts/InvestmentAdvice.sol\":1444:1461  _investmentAmount */\n  dup8\n    /* \"contracts/InvestmentAdvice.sol\":1401:1548  Investor(_investorAddress, _investorStake, _investmentAmount, _duration, _expectation, _recommendationCounter, InvestmentAdviceContractStatus.Open) */\n  dup2\n  mstore\n  0x20\n  add\n    /* \"contracts/InvestmentAdvice.sol\":1463:1472  _duration */\n  dup7\n    /* \"contracts/InvestmentAdvice.sol\":1401:1548  Investor(_investorAddress, _investorStake, _investmentAmount, _duration, _expectation, _recommendationCounter, InvestmentAdviceContractStatus.Open) */\n  dup2\n  mstore\n  0x20\n  add\n    /* \"contracts/InvestmentAdvice.sol\":1474:1486  _expectation */\n  dup6\n    /* \"contracts/InvestmentAdvice.sol\":1401:1548  Investor(_investorAddress, _investorStake, _investmentAmount, _duration, _expectation, _recommendationCounter, InvestmentAdviceContractStatus.Open) */\n  dup2\n  mstore\n  0x20\n  add\n    /* \"contracts/InvestmentAdvice.sol\":1488:1510  _recommendationCounter */\n  dup3\n    /* \"contracts/InvestmentAdvice.sol\":1401:1548  Investor(_investorAddress, _investorStake, _investmentAmount, _duration, _expectation, _recommendationCounter, InvestmentAdviceContractStatus.Open) */\n  0xffff\n  and\n  dup2\n  mstore\n  0x20\n  add\n    /* \"contracts/InvestmentAdvice.sol\":1512:1547  InvestmentAdviceContractStatus.Open */\n  0x00\n    /* \"contracts/InvestmentAdvice.sol\":1401:1548  Investor(_investorAddress, _investorStake, _investmentAmount, _duration, _expectation, _recommendationCounter, InvestmentAdviceContractStatus.Open) */\n  0x03\n  dup2\n  gt\n  iszero\n  tag_8\n  jumpi\n  tag_9\n  tag_10\n  jump\t// in\ntag_9:\ntag_8:\n  dup2\n  mstore\n  pop\n    /* \"contracts/InvestmentAdvice.sol\":1389:1398  _Investor */\n  0x01\n    /* \"contracts/InvestmentAdvice.sol\":1389:1548  _Investor = Investor(_investorAddress, _investorStake, _investmentAmount, _duration, _expectation, _recommendationCounter, InvestmentAdviceContractStatus.Open) */\n  0x00\n  dup3\n  add\n  mload\n  dup2\n  0x00\n  add\n  exp(0x0100, 0x00)\n  dup2\n  sload\n  dup2\n  0xffffffffffffffffffffffffffffffffffffffff\n  mul\n  not\n  and\n  swap1\n  dup4\n  0xffffffffffffffffffffffffffffffffffffffff\n  and\n  mul\n  or\n  swap1\n  sstore\n  pop\n  0x20\n  dup3\n  add\n  mload\n  dup2\n  0x01\n  add\n  sstore\n  0x40\n  dup3\n  add\n  mload\n  dup2\n  0x02\n  add\n  sstore\n  0x60\n  dup3\n  add\n  mload\n  dup2\n  0x03\n  add\n  sstore\n  0x80\n  dup3\n  add\n  mload\n  dup2\n  0x04\n  add\n  sstore\n  0xa0\n  dup3\n  add\n  mload\n  dup2\n  0x05\n  add\n  exp(0x0100, 0x00)\n  dup2\n  sload\n  dup2\n  0xffff\n  mul\n  not\n  and\n  swap1\n  dup4\n  0xffff\n  and\n  mul\n  or\n  swap1\n  sstore\n  pop\n  0xc0\n  dup3\n  add\n  mload\n  dup2\n  0x05\n  add\n  exp(0x0100, 0x02)\n  dup2\n  sload\n  dup2\n  0xff\n  mul\n  not\n  and\n  swap1\n  dup4\n  0x03\n  dup2\n  gt\n  iszero\n  tag_11\n  jumpi\n  tag_12\n  tag_10\n  jump\t// in\ntag_12:\ntag_11:\n  mul\n  or\n  swap1\n  sstore\n  pop\n  swap1\n  pop\n  pop\n    /* \"contracts/InvestmentAdvice.sol\":1568:1597  NewAdviceRequested(_Investor) */\n  0x97db6c2a31a7d3d3782d21ec33136d32a899190e64b74f8abb4bf2e2d04b0f52\n    /* \"contracts/InvestmentAdvice.sol\":1587:1596  _Investor */\n  0x01\n    /* \"contracts/InvestmentAdvice.sol\":1568:1597  NewAdviceRequested(_Investor) */\n  mload(0x40)\n  tag_13\n  swap2\n  swap1\n  tag_14\n  jump\t// in\ntag_13:\n  mload(0x40)\n  dup1\n  swap2\n  sub\n  swap1\n  log1\n    /* \"contracts/InvestmentAdvice.sol\":1124:1609  {\r... */\n  pop\n  pop\n  pop\n    /* \"contracts/InvestmentAdvice.sol\":1035:1609  constructor (uint256 _investmentAmount, uint256 _duration, uint256 _expectation) payable {\r... */\n  pop\n  pop\n  pop\n    /* \"contracts/InvestmentAdvice.sol\":60:5097  contract InvestmentAdvice {\r... */\n  jump(tag_15)\n    /* \"#utility.yul\":7:150   */\ntag_17:\n    /* \"#utility.yul\":64:69   */\n  0x00\n    /* \"#utility.yul\":95:101   */\n  dup2\n    /* \"#utility.yul\":89:102   */\n  mload\n    /* \"#utility.yul\":80:102   */\n  swap1\n  pop\n    /* \"#utility.yul\":111:144   */\n  tag_19\n    /* \"#utility.yul\":138:143   */\n  dup2\n    /* \"#utility.yul\":111:144   */\n  tag_20\n  jump\t// in\ntag_19:\n    /* \"#utility.yul\":7:150   */\n  swap3\n  swap2\n  pop\n  pop\n  jump\t// out\n    /* \"#utility.yul\":156:819   */\ntag_2:\n    /* \"#utility.yul\":244:250   */\n  0x00\n    /* \"#utility.yul\":252:258   */\n  dup1\n    /* \"#utility.yul\":260:266   */\n  0x00\n    /* \"#utility.yul\":309:311   */\n  0x60\n    /* \"#utility.yul\":297:306   */\n  dup5\n    /* \"#utility.yul\":288:295   */\n  dup7\n    /* \"#utility.yul\":284:307   */\n  sub\n    /* \"#utility.yul\":280:312   */\n  slt\n    /* \"#utility.yul\":277:396   */\n  iszero\n  tag_22\n  jumpi\n    /* \"#utility.yul\":315:394   */\n  tag_23\n  tag_24\n  jump\t// in\ntag_23:\n    /* \"#utility.yul\":277:396   */\ntag_22:\n    /* \"#utility.yul\":435:436   */\n  0x00\n    /* \"#utility.yul\":460:524   */\n  tag_25\n    /* \"#utility.yul\":516:523   */\n  dup7\n    /* \"#utility.yul\":507:513   */\n  dup3\n    /* \"#utility.yul\":496:505   */\n  dup8\n    /* \"#utility.yul\":492:514   */\n  add\n    /* \"#utility.yul\":460:524   */\n  tag_17\n  jump\t// in\ntag_25:\n    /* \"#utility.yul\":450:524   */\n  swap4\n  pop\n    /* \"#utility.yul\":406:534   */\n  pop\n    /* \"#utility.yul\":573:575   */\n  0x20\n    /* \"#utility.yul\":599:663   */\n  tag_26\n    /* \"#utility.yul\":655:662   */\n  dup7\n    /* \"#utility.yul\":646:652   */\n  dup3\n    /* \"#utility.yul\":635:644   */\n  dup8\n    /* \"#utility.yul\":631:653   */\n  add\n    /* \"#utility.yul\":599:663   */\n  tag_17\n  jump\t// in\ntag_26:\n    /* \"#utility.yul\":589:663   */\n  swap3\n  pop\n    /* \"#utility.yul\":544:673   */\n  pop\n    /* \"#utility.yul\":712:714   */\n  0x40\n    /* \"#utility.yul\":738:802   */\n  tag_27\n    /* \"#utility.yul\":794:801   */\n  dup7\n    /* \"#utility.yul\":785:791   */\n  dup3\n    /* \"#utility.yul\":774:783   */\n  dup8\n    /* \"#utility.yul\":770:792   */\n  add\n    /* \"#utility.yul\":738:802   */\n  tag_17\n  jump\t// in\ntag_27:\n    /* \"#utility.yul\":728:802   */\n  swap2\n  pop\n    /* \"#utility.yul\":683:812   */\n  pop\n    /* \"#utility.yul\":156:819   */\n  swap3\n  pop\n  swap3\n  pop\n  swap3\n  jump\t// out\n    /* \"#utility.yul\":825:933   */\ntag_28:\n    /* \"#utility.yul\":902:926   */\n  tag_30\n    /* \"#utility.yul\":920:925   */\n  dup2\n    /* \"#utility.yul\":902:926   */\n  tag_31\n  jump\t// in\ntag_30:\n    /* \"#utility.yul\":897:900   */\n  dup3\n    /* \"#utility.yul\":890:927   */\n  mstore\n    /* \"#utility.yul\":825:933   */\n  pop\n  pop\n  jump\t// out\n    /* \"#utility.yul\":939:1120   */\ntag_32:\n    /* \"#utility.yul\":1046:1113   */\n  tag_34\n    /* \"#utility.yul\":1107:1112   */\n  dup2\n    /* \"#utility.yul\":1046:1113   */\n  tag_35\n  jump\t// in\ntag_34:\n    /* \"#utility.yul\":1041:1044   */\n  dup3\n    /* \"#utility.yul\":1034:1114   */\n  mstore\n    /* \"#utility.yul\":939:1120   */\n  pop\n  pop\n  jump\t// out\n    /* \"#utility.yul\":1126:1492   */\ntag_36:\n    /* \"#utility.yul\":1268:1271   */\n  0x00\n    /* \"#utility.yul\":1289:1356   */\n  tag_38\n    /* \"#utility.yul\":1353:1355   */\n  0x3a\n    /* \"#utility.yul\":1348:1351   */\n  dup4\n    /* \"#utility.yul\":1289:1356   */\n  tag_39\n  jump\t// in\ntag_38:\n    /* \"#utility.yul\":1282:1356   */\n  swap2\n  pop\n    /* \"#utility.yul\":1365:1458   */\n  tag_40\n    /* \"#utility.yul\":1454:1457   */\n  dup3\n    /* \"#utility.yul\":1365:1458   */\n  tag_41\n  jump\t// in\ntag_40:\n    /* \"#utility.yul\":1483:1485   */\n  0x40\n    /* \"#utility.yul\":1478:1481   */\n  dup3\n    /* \"#utility.yul\":1474:1486   */\n  add\n    /* \"#utility.yul\":1467:1486   */\n  swap1\n  pop\n    /* \"#utility.yul\":1126:1492   */\n  swap2\n  swap1\n  pop\n  jump\t// out\n    /* \"#utility.yul\":1574:3626   */\ntag_42:\n    /* \"#utility.yul\":1716:1720   */\n  0xe0\n    /* \"#utility.yul\":1711:1714   */\n  dup3\n    /* \"#utility.yul\":1707:1721   */\n  add\n    /* \"#utility.yul\":1747:1748   */\n  0x00\n    /* \"#utility.yul\":1833:1837   */\n  dup1\n    /* \"#utility.yul\":1826:1831   */\n  dup4\n    /* \"#utility.yul\":1822:1838   */\n  add\n    /* \"#utility.yul\":1816:1839   */\n  sload\n    /* \"#utility.yul\":1803:1839   */\n  swap1\n  pop\n    /* \"#utility.yul\":1872:1927   */\n  tag_44\n    /* \"#utility.yul\":1917:1926   */\n  dup2\n    /* \"#utility.yul\":1872:1927   */\n  tag_45\n  jump\t// in\ntag_44:\n    /* \"#utility.yul\":1940:2003   */\n  tag_46\n    /* \"#utility.yul\":1997:2001   */\n  0x00\n    /* \"#utility.yul\":1992:1995   */\n  dup7\n    /* \"#utility.yul\":1988:2002   */\n  add\n    /* \"#utility.yul\":1974:1986   */\n  dup3\n    /* \"#utility.yul\":1940:2003   */\n  tag_28\n  jump\t// in\ntag_46:\n    /* \"#utility.yul\":1758:2013   */\n  pop\n    /* \"#utility.yul\":2096:2100   */\n  0x01\n    /* \"#utility.yul\":2089:2094   */\n  dup4\n    /* \"#utility.yul\":2085:2101   */\n  add\n    /* \"#utility.yul\":2079:2102   */\n  sload\n    /* \"#utility.yul\":2066:2102   */\n  swap1\n  pop\n    /* \"#utility.yul\":2135:2190   */\n  tag_47\n    /* \"#utility.yul\":2180:2189   */\n  dup2\n    /* \"#utility.yul\":2135:2190   */\n  tag_48\n  jump\t// in\ntag_47:\n    /* \"#utility.yul\":2203:2266   */\n  tag_49\n    /* \"#utility.yul\":2260:2264   */\n  0x20\n    /* \"#utility.yul\":2255:2258   */\n  dup7\n    /* \"#utility.yul\":2251:2265   */\n  add\n    /* \"#utility.yul\":2237:2249   */\n  dup3\n    /* \"#utility.yul\":2203:2266   */\n  tag_50\n  jump\t// in\ntag_49:\n    /* \"#utility.yul\":2023:2276   */\n  pop\n    /* \"#utility.yul\":2362:2366   */\n  0x02\n    /* \"#utility.yul\":2355:2360   */\n  dup4\n    /* \"#utility.yul\":2351:2367   */\n  add\n    /* \"#utility.yul\":2345:2368   */\n  sload\n    /* \"#utility.yul\":2332:2368   */\n  swap1\n  pop\n    /* \"#utility.yul\":2401:2456   */\n  tag_51\n    /* \"#utility.yul\":2446:2455   */\n  dup2\n    /* \"#utility.yul\":2401:2456   */\n  tag_48\n  jump\t// in\ntag_51:\n    /* \"#utility.yul\":2469:2532   */\n  tag_52\n    /* \"#utility.yul\":2526:2530   */\n  0x40\n    /* \"#utility.yul\":2521:2524   */\n  dup7\n    /* \"#utility.yul\":2517:2531   */\n  add\n    /* \"#utility.yul\":2503:2515   */\n  dup3\n    /* \"#utility.yul\":2469:2532   */\n  tag_50\n  jump\t// in\ntag_52:\n    /* \"#utility.yul\":2286:2542   */\n  pop\n    /* \"#utility.yul\":2624:2628   */\n  0x03\n    /* \"#utility.yul\":2617:2622   */\n  dup4\n    /* \"#utility.yul\":2613:2629   */\n  add\n    /* \"#utility.yul\":2607:2630   */\n  sload\n    /* \"#utility.yul\":2594:2630   */\n  swap1\n  pop\n    /* \"#utility.yul\":2663:2718   */\n  tag_53\n    /* \"#utility.yul\":2708:2717   */\n  dup2\n    /* \"#utility.yul\":2663:2718   */\n  tag_48\n  jump\t// in\ntag_53:\n    /* \"#utility.yul\":2731:2794   */\n  tag_54\n    /* \"#utility.yul\":2788:2792   */\n  0x60\n    /* \"#utility.yul\":2783:2786   */\n  dup7\n    /* \"#utility.yul\":2779:2793   */\n  add\n    /* \"#utility.yul\":2765:2777   */\n  dup3\n    /* \"#utility.yul\":2731:2794   */\n  tag_50\n  jump\t// in\ntag_54:\n    /* \"#utility.yul\":2552:2804   */\n  pop\n    /* \"#utility.yul\":2900:2904   */\n  0x04\n    /* \"#utility.yul\":2893:2898   */\n  dup4\n    /* \"#utility.yul\":2889:2905   */\n  add\n    /* \"#utility.yul\":2883:2906   */\n  sload\n    /* \"#utility.yul\":2870:2906   */\n  swap1\n  pop\n    /* \"#utility.yul\":2939:2994   */\n  tag_55\n    /* \"#utility.yul\":2984:2993   */\n  dup2\n    /* \"#utility.yul\":2939:2994   */\n  tag_48\n  jump\t// in\ntag_55:\n    /* \"#utility.yul\":3007:3070   */\n  tag_56\n    /* \"#utility.yul\":3064:3068   */\n  0x80\n    /* \"#utility.yul\":3059:3062   */\n  dup7\n    /* \"#utility.yul\":3055:3069   */\n  add\n    /* \"#utility.yul\":3041:3053   */\n  dup3\n    /* \"#utility.yul\":3007:3070   */\n  tag_50\n  jump\t// in\ntag_56:\n    /* \"#utility.yul\":2814:3080   */\n  pop\n    /* \"#utility.yul\":3172:3176   */\n  0x05\n    /* \"#utility.yul\":3165:3170   */\n  dup4\n    /* \"#utility.yul\":3161:3177   */\n  add\n    /* \"#utility.yul\":3155:3178   */\n  sload\n    /* \"#utility.yul\":3142:3178   */\n  swap1\n  pop\n    /* \"#utility.yul\":3211:3265   */\n  tag_57\n    /* \"#utility.yul\":3255:3264   */\n  dup2\n    /* \"#utility.yul\":3211:3265   */\n  tag_58\n  jump\t// in\ntag_57:\n    /* \"#utility.yul\":3278:3339   */\n  tag_59\n    /* \"#utility.yul\":3333:3337   */\n  0xa0\n    /* \"#utility.yul\":3328:3331   */\n  dup7\n    /* \"#utility.yul\":3324:3338   */\n  add\n    /* \"#utility.yul\":3310:3322   */\n  dup3\n    /* \"#utility.yul\":3278:3339   */\n  tag_60\n  jump\t// in\ntag_59:\n    /* \"#utility.yul\":3090:3349   */\n  pop\n    /* \"#utility.yul\":3416:3503   */\n  tag_61\n    /* \"#utility.yul\":3493:3502   */\n  dup2\n    /* \"#utility.yul\":3416:3503   */\n  tag_62\n  jump\t// in\ntag_61:\n    /* \"#utility.yul\":3516:3609   */\n  tag_63\n    /* \"#utility.yul\":3603:3607   */\n  0xc0\n    /* \"#utility.yul\":3598:3601   */\n  dup7\n    /* \"#utility.yul\":3594:3608   */\n  add\n    /* \"#utility.yul\":3580:3592   */\n  dup3\n    /* \"#utility.yul\":3516:3609   */\n  tag_32\n  jump\t// in\ntag_63:\n    /* \"#utility.yul\":3359:3619   */\n  pop\n    /* \"#utility.yul\":1685:3626   */\n  pop\n  pop\n    /* \"#utility.yul\":1574:3626   */\n  pop\n  pop\n  jump\t// out\n    /* \"#utility.yul\":3632:3737   */\ntag_60:\n    /* \"#utility.yul\":3707:3730   */\n  tag_65\n    /* \"#utility.yul\":3724:3729   */\n  dup2\n    /* \"#utility.yul\":3707:3730   */\n  tag_66\n  jump\t// in\ntag_65:\n    /* \"#utility.yul\":3702:3705   */\n  dup3\n    /* \"#utility.yul\":3695:3731   */\n  mstore\n    /* \"#utility.yul\":3632:3737   */\n  pop\n  pop\n  jump\t// out\n    /* \"#utility.yul\":3743:3851   */\ntag_50:\n    /* \"#utility.yul\":3820:3844   */\n  tag_68\n    /* \"#utility.yul\":3838:3843   */\n  dup2\n    /* \"#utility.yul\":3820:3844   */\n  tag_69\n  jump\t// in\ntag_68:\n    /* \"#utility.yul\":3815:3818   */\n  dup3\n    /* \"#utility.yul\":3808:3845   */\n  mstore\n    /* \"#utility.yul\":3743:3851   */\n  pop\n  pop\n  jump\t// out\n    /* \"#utility.yul\":3857:4276   */\ntag_7:\n    /* \"#utility.yul\":4023:4027   */\n  0x00\n    /* \"#utility.yul\":4061:4063   */\n  0x20\n    /* \"#utility.yul\":4050:4059   */\n  dup3\n    /* \"#utility.yul\":4046:4064   */\n  add\n    /* \"#utility.yul\":4038:4064   */\n  swap1\n  pop\n    /* \"#utility.yul\":4110:4119   */\n  dup2\n    /* \"#utility.yul\":4104:4108   */\n  dup2\n    /* \"#utility.yul\":4100:4120   */\n  sub\n    /* \"#utility.yul\":4096:4097   */\n  0x00\n    /* \"#utility.yul\":4085:4094   */\n  dup4\n    /* \"#utility.yul\":4081:4098   */\n  add\n    /* \"#utility.yul\":4074:4121   */\n  mstore\n    /* \"#utility.yul\":4138:4269   */\n  tag_71\n    /* \"#utility.yul\":4264:4268   */\n  dup2\n    /* \"#utility.yul\":4138:4269   */\n  tag_36\n  jump\t// in\ntag_71:\n    /* \"#utility.yul\":4130:4269   */\n  swap1\n  pop\n    /* \"#utility.yul\":3857:4276   */\n  swap2\n  swap1\n  pop\n  jump\t// out\n    /* \"#utility.yul\":4282:4595   */\ntag_14:\n    /* \"#utility.yul\":4420:4424   */\n  0x00\n    /* \"#utility.yul\":4458:4461   */\n  0xe0\n    /* \"#utility.yul\":4447:4456   */\n  dup3\n    /* \"#utility.yul\":4443:4462   */\n  add\n    /* \"#utility.yul\":4435:4462   */\n  swap1\n  pop\n    /* \"#utility.yul\":4472:4588   */\n  tag_73\n    /* \"#utility.yul\":4585:4586   */\n  0x00\n    /* \"#utility.yul\":4574:4583   */\n  dup4\n    /* \"#utility.yul\":4570:4587   */\n  add\n    /* \"#utility.yul\":4561:4567   */\n  dup5\n    /* \"#utility.yul\":4472:4588   */\n  tag_42\n  jump\t// in\ntag_73:\n    /* \"#utility.yul\":4282:4595   */\n  swap3\n  swap2\n  pop\n  pop\n  jump\t// out\n    /* \"#utility.yul\":4682:4851   */\ntag_39:\n    /* \"#utility.yul\":4766:4777   */\n  0x00\n    /* \"#utility.yul\":4800:4806   */\n  dup3\n    /* \"#utility.yul\":4795:4798   */\n  dup3\n    /* \"#utility.yul\":4788:4807   */\n  mstore\n    /* \"#utility.yul\":4840:4844   */\n  0x20\n    /* \"#utility.yul\":4835:4838   */\n  dup3\n    /* \"#utility.yul\":4831:4845   */\n  add\n    /* \"#utility.yul\":4816:4845   */\n  swap1\n  pop\n    /* \"#utility.yul\":4682:4851   */\n  swap3\n  swap2\n  pop\n  pop\n  jump\t// out\n    /* \"#utility.yul\":4857:4996   */\ntag_77:\n    /* \"#utility.yul\":4907:4914   */\n  0x00\n    /* \"#utility.yul\":4947:4989   */\n  0xffffffffffffffffffffffffffffffffffffffff\n    /* \"#utility.yul\":4940:4945   */\n  dup3\n    /* \"#utility.yul\":4936:4990   */\n  and\n    /* \"#utility.yul\":4925:4990   */\n  swap1\n  pop\n    /* \"#utility.yul\":4857:4996   */\n  swap2\n  swap1\n  pop\n  jump\t// out\n    /* \"#utility.yul\":5002:5135   */\ntag_79:\n    /* \"#utility.yul\":5084:5091   */\n  0x00\n    /* \"#utility.yul\":5124:5128   */\n  0xff\n    /* \"#utility.yul\":5117:5122   */\n  dup3\n    /* \"#utility.yul\":5113:5129   */\n  and\n    /* \"#utility.yul\":5102:5129   */\n  swap1\n  pop\n    /* \"#utility.yul\":5002:5135   */\n  swap2\n  swap1\n  pop\n  jump\t// out\n    /* \"#utility.yul\":5141:5243   */\ntag_81:\n    /* \"#utility.yul\":5190:5197   */\n  0x00\n    /* \"#utility.yul\":5230:5236   */\n  0xffff\n    /* \"#utility.yul\":5223:5228   */\n  dup3\n    /* \"#utility.yul\":5219:5237   */\n  and\n    /* \"#utility.yul\":5208:5237   */\n  swap1\n  pop\n    /* \"#utility.yul\":5141:5243   */\n  swap2\n  swap1\n  pop\n  jump\t// out\n    /* \"#utility.yul\":5249:5339   */\ntag_83:\n    /* \"#utility.yul\":5299:5306   */\n  0x00\n    /* \"#utility.yul\":5328:5333   */\n  dup2\n    /* \"#utility.yul\":5317:5333   */\n  swap1\n  pop\n    /* \"#utility.yul\":5249:5339   */\n  swap2\n  swap1\n  pop\n  jump\t// out\n    /* \"#utility.yul\":5345:5441   */\ntag_31:\n    /* \"#utility.yul\":5382:5389   */\n  0x00\n    /* \"#utility.yul\":5411:5435   */\n  tag_86\n    /* \"#utility.yul\":5429:5434   */\n  dup3\n    /* \"#utility.yul\":5411:5435   */\n  tag_87\n  jump\t// in\ntag_86:\n    /* \"#utility.yul\":5400:5435   */\n  swap1\n  pop\n    /* \"#utility.yul\":5345:5441   */\n  swap2\n  swap1\n  pop\n  jump\t// out\n    /* \"#utility.yul\":5447:5622   */\ntag_88:\n    /* \"#utility.yul\":5516:5523   */\n  0x00\n    /* \"#utility.yul\":5545:5550   */\n  dup2\n    /* \"#utility.yul\":5534:5550   */\n  swap1\n  pop\n    /* \"#utility.yul\":5551:5616   */\n  tag_90\n    /* \"#utility.yul\":5610:5615   */\n  dup3\n    /* \"#utility.yul\":5551:5616   */\n  tag_91\n  jump\t// in\ntag_90:\n    /* \"#utility.yul\":5447:5622   */\n  swap2\n  swap1\n  pop\n  jump\t// out\n    /* \"#utility.yul\":5628:5717   */\ntag_66:\n    /* \"#utility.yul\":5664:5671   */\n  0x00\n    /* \"#utility.yul\":5704:5710   */\n  0xffff\n    /* \"#utility.yul\":5697:5702   */\n  dup3\n    /* \"#utility.yul\":5693:5711   */\n  and\n    /* \"#utility.yul\":5682:5711   */\n  swap1\n  pop\n    /* \"#utility.yul\":5628:5717   */\n  swap2\n  swap1\n  pop\n  jump\t// out\n    /* \"#utility.yul\":5723:5849   */\ntag_87:\n    /* \"#utility.yul\":5760:5767   */\n  0x00\n    /* \"#utility.yul\":5800:5842   */\n  0xffffffffffffffffffffffffffffffffffffffff\n    /* \"#utility.yul\":5793:5798   */\n  dup3\n    /* \"#utility.yul\":5789:5843   */\n  and\n    /* \"#utility.yul\":5778:5843   */\n  swap1\n  pop\n    /* \"#utility.yul\":5723:5849   */\n  swap2\n  swap1\n  pop\n  jump\t// out\n    /* \"#utility.yul\":5855:5932   */\ntag_69:\n    /* \"#utility.yul\":5892:5899   */\n  0x00\n    /* \"#utility.yul\":5921:5926   */\n  dup2\n    /* \"#utility.yul\":5910:5926   */\n  swap1\n  pop\n    /* \"#utility.yul\":5855:5932   */\n  swap2\n  swap1\n  pop\n  jump\t// out\n    /* \"#utility.yul\":5938:6113   */\ntag_35:\n    /* \"#utility.yul\":6018:6027   */\n  0x00\n    /* \"#utility.yul\":6051:6107   */\n  tag_96\n    /* \"#utility.yul\":6101:6106   */\n  dup3\n    /* \"#utility.yul\":6051:6107   */\n  tag_88\n  jump\t// in\ntag_96:\n    /* \"#utility.yul\":6038:6107   */\n  swap1\n  pop\n    /* \"#utility.yul\":5938:6113   */\n  swap2\n  swap1\n  pop\n  jump\t// out\n    /* \"#utility.yul\":6119:6285   */\ntag_45:\n    /* \"#utility.yul\":6188:6193   */\n  0x00\n    /* \"#utility.yul\":6213:6279   */\n  tag_98\n    /* \"#utility.yul\":6244:6278   */\n  tag_99\n    /* \"#utility.yul\":6267:6277   */\n  dup4\n    /* \"#utility.yul\":6244:6278   */\n  tag_100\n  jump\t// in\ntag_99:\n    /* \"#utility.yul\":6213:6279   */\n  tag_77\n  jump\t// in\ntag_98:\n    /* \"#utility.yul\":6204:6279   */\n  swap1\n  pop\n    /* \"#utility.yul\":6119:6285   */\n  swap2\n  swap1\n  pop\n  jump\t// out\n    /* \"#utility.yul\":6291:6455   */\ntag_58:\n    /* \"#utility.yul\":6359:6364   */\n  0x00\n    /* \"#utility.yul\":6384:6449   */\n  tag_102\n    /* \"#utility.yul\":6414:6448   */\n  tag_103\n    /* \"#utility.yul\":6437:6447   */\n  dup4\n    /* \"#utility.yul\":6414:6448   */\n  tag_100\n  jump\t// in\ntag_103:\n    /* \"#utility.yul\":6384:6449   */\n  tag_81\n  jump\t// in\ntag_102:\n    /* \"#utility.yul\":6375:6449   */\n  swap1\n  pop\n    /* \"#utility.yul\":6291:6455   */\n  swap2\n  swap1\n  pop\n  jump\t// out\n    /* \"#utility.yul\":6461:6627   */\ntag_48:\n    /* \"#utility.yul\":6530:6535   */\n  0x00\n    /* \"#utility.yul\":6555:6621   */\n  tag_105\n    /* \"#utility.yul\":6586:6620   */\n  tag_106\n    /* \"#utility.yul\":6609:6619   */\n  dup4\n    /* \"#utility.yul\":6586:6620   */\n  tag_100\n  jump\t// in\ntag_106:\n    /* \"#utility.yul\":6555:6621   */\n  tag_83\n  jump\t// in\ntag_105:\n    /* \"#utility.yul\":6546:6621   */\n  swap1\n  pop\n    /* \"#utility.yul\":6461:6627   */\n  swap2\n  swap1\n  pop\n  jump\t// out\n    /* \"#utility.yul\":6633:6864   */\ntag_62:\n    /* \"#utility.yul\":6734:6739   */\n  0x00\n    /* \"#utility.yul\":6759:6858   */\n  tag_108\n    /* \"#utility.yul\":6822:6857   */\n  tag_109\n    /* \"#utility.yul\":6846:6856   */\n  dup4\n    /* \"#utility.yul\":6822:6857   */\n  tag_110\n  jump\t// in\ntag_109:\n    /* \"#utility.yul\":6759:6858   */\n  tag_79\n  jump\t// in\ntag_108:\n    /* \"#utility.yul\":6750:6858   */\n  swap1\n  pop\n    /* \"#utility.yul\":6633:6864   */\n  swap2\n  swap1\n  pop\n  jump\t// out\n    /* \"#utility.yul\":6870:7050   */\ntag_10:\n    /* \"#utility.yul\":6918:6995   */\n  0x4e487b7100000000000000000000000000000000000000000000000000000000\n    /* \"#utility.yul\":6915:6916   */\n  0x00\n    /* \"#utility.yul\":6908:6996   */\n  mstore\n    /* \"#utility.yul\":7015:7019   */\n  0x21\n    /* \"#utility.yul\":7012:7013   */\n  0x04\n    /* \"#utility.yul\":7005:7020   */\n  mstore\n    /* \"#utility.yul\":7039:7043   */\n  0x24\n    /* \"#utility.yul\":7036:7037   */\n  0x00\n    /* \"#utility.yul\":7029:7044   */\n  revert\n    /* \"#utility.yul\":7179:7296   */\ntag_24:\n    /* \"#utility.yul\":7288:7289   */\n  0x00\n    /* \"#utility.yul\":7285:7286   */\n  dup1\n    /* \"#utility.yul\":7278:7290   */\n  revert\n    /* \"#utility.yul\":7302:7404   */\ntag_100:\n    /* \"#utility.yul\":7344:7352   */\n  0x00\n    /* \"#utility.yul\":7391:7396   */\n  dup2\n    /* \"#utility.yul\":7388:7389   */\n  0x00\n    /* \"#utility.yul\":7384:7397   */\n  shr\n    /* \"#utility.yul\":7363:7397   */\n  swap1\n  pop\n    /* \"#utility.yul\":7302:7404   */\n  swap2\n  swap1\n  pop\n  jump\t// out\n    /* \"#utility.yul\":7410:7514   */\ntag_110:\n    /* \"#utility.yul\":7453:7461   */\n  0x00\n    /* \"#utility.yul\":7501:7506   */\n  dup2\n    /* \"#utility.yul\":7497:7499   */\n  0x10\n    /* \"#utility.yul\":7493:7507   */\n  shr\n    /* \"#utility.yul\":7472:7507   */\n  swap1\n  pop\n    /* \"#utility.yul\":7410:7514   */\n  swap2\n  swap1\n  pop\n  jump\t// out\n    /* \"#utility.yul\":7520:7765   */\ntag_41:\n    /* \"#utility.yul\":7660:7694   */\n  0x496e766573746f722072657175657374696e6720616476696365206e65656473\n    /* \"#utility.yul\":7656:7657   */\n  0x00\n    /* \"#utility.yul\":7648:7654   */\n  dup3\n    /* \"#utility.yul\":7644:7658   */\n  add\n    /* \"#utility.yul\":7637:7695   */\n  mstore\n    /* \"#utility.yul\":7729:7757   */\n  0x20746f207374616b65206174206c656173742031206574686572000000000000\n    /* \"#utility.yul\":7724:7726   */\n  0x20\n    /* \"#utility.yul\":7716:7722   */\n  dup3\n    /* \"#utility.yul\":7712:7727   */\n  add\n    /* \"#utility.yul\":7705:7758   */\n  mstore\n    /* \"#utility.yul\":7520:7765   */\n  pop\n  jump\t// out\n    /* \"#utility.yul\":7771:7908   */\ntag_91:\n    /* \"#utility.yul\":7876:7877   */\n  0x04\n    /* \"#utility.yul\":7869:7874   */\n  dup2\n    /* \"#utility.yul\":7866:7878   */\n  lt\n    /* \"#utility.yul\":7856:7902   */\n  tag_119\n  jumpi\n    /* \"#utility.yul\":7882:7900   */\n  tag_120\n  tag_10\n  jump\t// in\ntag_120:\n    /* \"#utility.yul\":7856:7902   */\ntag_119:\n    /* \"#utility.yul\":7771:7908   */\n  pop\n  jump\t// out\n    /* \"#utility.yul\":7914:8036   */\ntag_20:\n    /* \"#utility.yul\":7987:8011   */\n  tag_122\n    /* \"#utility.yul\":8005:8010   */\n  dup2\n    /* \"#utility.yul\":7987:8011   */\n  tag_69\n  jump\t// in\ntag_122:\n    /* \"#utility.yul\":7980:7985   */\n  dup2\n    /* \"#utility.yul\":7977:8012   */\n  eq\n    /* \"#utility.yul\":7967:8030   */\n  tag_123\n  jumpi\n    /* \"#utility.yul\":8026:8027   */\n  0x00\n    /* \"#utility.yul\":8023:8024   */\n  dup1\n    /* \"#utility.yul\":8016:8028   */\n  revert\n    /* \"#utility.yul\":7967:8030   */\ntag_123:\n    /* \"#utility.yul\":7914:8036   */\n  pop\n  jump\t// out\n    /* \"contracts/InvestmentAdvice.sol\":60:5097  contract InvestmentAdvice {\r... */\ntag_15:\n  dataSize(sub_0)\n  dup1\n  dataOffset(sub_0)\n  0x00\n  codecopy\n  0x00\n  return\nstop\n\nsub_0: assembly {\n        /* \"contracts/InvestmentAdvice.sol\":60:5097  contract InvestmentAdvice {\r... */\n      mstore(0x40, 0x80)\n      jumpi(tag_1, lt(calldatasize, 0x04))\n      shr(0xe0, calldataload(0x00))\n      dup1\n      0x1af76cc0\n      eq\n      tag_2\n      jumpi\n      dup1\n      0x2d797b7a\n      eq\n      tag_3\n      jumpi\n      dup1\n      0x7ee4b26a\n      eq\n      tag_4\n      jumpi\n      dup1\n      0xa46e0957\n      eq\n      tag_5\n      jumpi\n      dup1\n      0xf68e95a2\n      eq\n      tag_6\n      jumpi\n    tag_1:\n      0x00\n      dup1\n      revert\n        /* \"contracts/InvestmentAdvice.sol\":1618:2567  function makeRecommendation(string calldata _stockRecommendation) public payable{\r... */\n    tag_2:\n      tag_7\n      0x04\n      dup1\n      calldatasize\n      sub\n      dup2\n      add\n      swap1\n      tag_8\n      swap2\n      swap1\n      tag_9\n      jump\t// in\n    tag_8:\n      tag_10\n      jump\t// in\n    tag_7:\n      stop\n        /* \"contracts/InvestmentAdvice.sol\":2575:5088  function recommendationAccepted(uint16 _advisorIndex) public {\r... */\n    tag_3:\n      callvalue\n      dup1\n      iszero\n      tag_11\n      jumpi\n      0x00\n      dup1\n      revert\n    tag_11:\n      pop\n      tag_12\n      0x04\n      dup1\n      calldatasize\n      sub\n      dup2\n      add\n      swap1\n      tag_13\n      swap2\n      swap1\n      tag_14\n      jump\t// in\n    tag_13:\n      tag_15\n      jump\t// in\n    tag_12:\n      stop\n        /* \"contracts/InvestmentAdvice.sol\":627:652  Investor public _Investor */\n    tag_4:\n      callvalue\n      dup1\n      iszero\n      tag_16\n      jumpi\n      0x00\n      dup1\n      revert\n    tag_16:\n      pop\n      tag_17\n      tag_18\n      jump\t// in\n    tag_17:\n      mload(0x40)\n      tag_19\n      swap8\n      swap7\n      swap6\n      swap5\n      swap4\n      swap3\n      swap2\n      swap1\n      tag_20\n      jump\t// in\n    tag_19:\n      mload(0x40)\n      dup1\n      swap2\n      sub\n      swap1\n      return\n        /* \"contracts/InvestmentAdvice.sol\":176:228  uint256 public NativeBalance = address(this).balance */\n    tag_5:\n      callvalue\n      dup1\n      iszero\n      tag_21\n      jumpi\n      0x00\n      dup1\n      revert\n    tag_21:\n      pop\n      tag_22\n      tag_23\n      jump\t// in\n    tag_22:\n      mload(0x40)\n      tag_24\n      swap2\n      swap1\n      tag_25\n      jump\t// in\n    tag_24:\n      mload(0x40)\n      dup1\n      swap2\n      sub\n      swap1\n      return\n        /* \"contracts/InvestmentAdvice.sol\":900:957  mapping(uint16 => Advisor) public InvestorAdvisorsMapping */\n    tag_6:\n      callvalue\n      dup1\n      iszero\n      tag_26\n      jumpi\n      0x00\n      dup1\n      revert\n    tag_26:\n      pop\n      tag_27\n      0x04\n      dup1\n      calldatasize\n      sub\n      dup2\n      add\n      swap1\n      tag_28\n      swap2\n      swap1\n      tag_14\n      jump\t// in\n    tag_28:\n      tag_29\n      jump\t// in\n    tag_27:\n      mload(0x40)\n      tag_30\n      swap5\n      swap4\n      swap3\n      swap2\n      swap1\n      tag_31\n      jump\t// in\n    tag_30:\n      mload(0x40)\n      dup1\n      swap2\n      sub\n      swap1\n      return\n        /* \"contracts/InvestmentAdvice.sol\":1618:2567  function makeRecommendation(string calldata _stockRecommendation) public payable{\r... */\n    tag_10:\n        /* \"contracts/InvestmentAdvice.sol\":1835:1877  InvestmentAdviceContractStatus.Recommended */\n      0x02\n        /* \"contracts/InvestmentAdvice.sol\":1815:1877  _Investor.status != InvestmentAdviceContractStatus.Recommended */\n      0x03\n      dup2\n      gt\n      iszero\n      tag_33\n      jumpi\n      tag_34\n      tag_35\n      jump\t// in\n    tag_34:\n    tag_33:\n        /* \"contracts/InvestmentAdvice.sol\":1815:1824  _Investor */\n      0x01\n        /* \"contracts/InvestmentAdvice.sol\":1815:1831  _Investor.status */\n      0x05\n      add\n      0x02\n      swap1\n      sload\n      swap1\n      0x0100\n      exp\n      swap1\n      div\n      0xff\n      and\n        /* \"contracts/InvestmentAdvice.sol\":1815:1877  _Investor.status != InvestmentAdviceContractStatus.Recommended */\n      0x03\n      dup2\n      gt\n      iszero\n      tag_36\n      jumpi\n      tag_37\n      tag_35\n      jump\t// in\n    tag_37:\n    tag_36:\n      eq\n      iszero\n        /* \"contracts/InvestmentAdvice.sol\":1807:1917  require(_Investor.status != InvestmentAdviceContractStatus.Recommended, \"Investment advice already received\" ) */\n      tag_38\n      jumpi\n      mload(0x40)\n      0x08c379a000000000000000000000000000000000000000000000000000000000\n      dup2\n      mstore\n      0x04\n      add\n      tag_39\n      swap1\n      tag_40\n      jump\t// in\n    tag_39:\n      mload(0x40)\n      dup1\n      swap2\n      sub\n      swap1\n      revert\n    tag_38:\n        /* \"contracts/InvestmentAdvice.sol\":1986:2009  address _advisorAddress */\n      0x00\n        /* \"contracts/InvestmentAdvice.sol\":2012:2022  msg.sender */\n      caller\n        /* \"contracts/InvestmentAdvice.sol\":1986:2022  address _advisorAddress = msg.sender */\n      swap1\n      pop\n        /* \"contracts/InvestmentAdvice.sol\":2033:2054  uint256 _advisorStake */\n      0x00\n        /* \"contracts/InvestmentAdvice.sol\":2057:2066  msg.value */\n      callvalue\n        /* \"contracts/InvestmentAdvice.sol\":2033:2066  uint256 _advisorStake = msg.value */\n      swap1\n      pop\n        /* \"contracts/InvestmentAdvice.sol\":2104:2105  1 */\n      0x01\n        /* \"contracts/InvestmentAdvice.sol\":2087:2100  _advisorStake */\n      dup2\n        /* \"contracts/InvestmentAdvice.sol\":2087:2105  _advisorStake >= 1 */\n      lt\n      iszero\n        /* \"contracts/InvestmentAdvice.sol\":2079:2163  require(_advisorStake >= 1, \"Advisors giving advice need to stake at least 1 ether\") */\n      tag_41\n      jumpi\n      mload(0x40)\n      0x08c379a000000000000000000000000000000000000000000000000000000000\n      dup2\n      mstore\n      0x04\n      add\n      tag_42\n      swap1\n      tag_43\n      jump\t// in\n    tag_42:\n      mload(0x40)\n      dup1\n      swap2\n      sub\n      swap1\n      revert\n    tag_41:\n        /* \"contracts/InvestmentAdvice.sol\":2174:2197  Advisor memory _Advisor */\n      tag_44\n      tag_45\n      jump\t// in\n    tag_44:\n        /* \"contracts/InvestmentAdvice.sol\":2219:2287  Advisor(_advisorAddress, _advisorStake, _stockRecommendation, false) */\n      mload(0x40)\n      dup1\n      0x80\n      add\n      0x40\n      mstore\n      dup1\n        /* \"contracts/InvestmentAdvice.sol\":2227:2242  _advisorAddress */\n      dup5\n        /* \"contracts/InvestmentAdvice.sol\":2219:2287  Advisor(_advisorAddress, _advisorStake, _stockRecommendation, false) */\n      0xffffffffffffffffffffffffffffffffffffffff\n      and\n      dup2\n      mstore\n      0x20\n      add\n        /* \"contracts/InvestmentAdvice.sol\":2244:2257  _advisorStake */\n      dup4\n        /* \"contracts/InvestmentAdvice.sol\":2219:2287  Advisor(_advisorAddress, _advisorStake, _stockRecommendation, false) */\n      dup2\n      mstore\n      0x20\n      add\n        /* \"contracts/InvestmentAdvice.sol\":2259:2279  _stockRecommendation */\n      dup7\n      dup7\n        /* \"contracts/InvestmentAdvice.sol\":2219:2287  Advisor(_advisorAddress, _advisorStake, _stockRecommendation, false) */\n      dup1\n      dup1\n      0x1f\n      add\n      0x20\n      dup1\n      swap2\n      div\n      mul\n      0x20\n      add\n      mload(0x40)\n      swap1\n      dup2\n      add\n      0x40\n      mstore\n      dup1\n      swap4\n      swap3\n      swap2\n      swap1\n      dup2\n      dup2\n      mstore\n      0x20\n      add\n      dup4\n      dup4\n      dup1\n      dup3\n      dup5\n      calldatacopy\n      0x00\n      dup2\n      dup5\n      add\n      mstore\n      not(0x1f)\n      0x1f\n      dup3\n      add\n      and\n      swap1\n      pop\n      dup1\n      dup4\n      add\n      swap3\n      pop\n      pop\n      pop\n      pop\n      pop\n      pop\n      pop\n      dup2\n      mstore\n      0x20\n      add\n        /* \"contracts/InvestmentAdvice.sol\":2281:2286  false */\n      0x00\n        /* \"contracts/InvestmentAdvice.sol\":2219:2287  Advisor(_advisorAddress, _advisorStake, _stockRecommendation, false) */\n      iszero\n      iszero\n      dup2\n      mstore\n      pop\n        /* \"contracts/InvestmentAdvice.sol\":2208:2287  _Advisor = Advisor(_advisorAddress, _advisorStake, _stockRecommendation, false) */\n      swap1\n      pop\n        /* \"contracts/InvestmentAdvice.sol\":2358:2366  _Advisor */\n      dup1\n        /* \"contracts/InvestmentAdvice.sol\":2298:2321  InvestorAdvisorsMapping */\n      0x07\n        /* \"contracts/InvestmentAdvice.sol\":2298:2355  InvestorAdvisorsMapping[_Investor.RecommendationsCounter] */\n      0x00\n        /* \"contracts/InvestmentAdvice.sol\":2322:2331  _Investor */\n      0x01\n        /* \"contracts/InvestmentAdvice.sol\":2322:2354  _Investor.RecommendationsCounter */\n      0x05\n      add\n      0x00\n      swap1\n      sload\n      swap1\n      0x0100\n      exp\n      swap1\n      div\n      0xffff\n      and\n        /* \"contracts/InvestmentAdvice.sol\":2298:2355  InvestorAdvisorsMapping[_Investor.RecommendationsCounter] */\n      0xffff\n      and\n      0xffff\n      and\n      dup2\n      mstore\n      0x20\n      add\n      swap1\n      dup2\n      mstore\n      0x20\n      add\n      0x00\n      keccak256\n        /* \"contracts/InvestmentAdvice.sol\":2298:2366  InvestorAdvisorsMapping[_Investor.RecommendationsCounter] = _Advisor */\n      0x00\n      dup3\n      add\n      mload\n      dup2\n      0x00\n      add\n      exp(0x0100, 0x00)\n      dup2\n      sload\n      dup2\n      0xffffffffffffffffffffffffffffffffffffffff\n      mul\n      not\n      and\n      swap1\n      dup4\n      0xffffffffffffffffffffffffffffffffffffffff\n      and\n      mul\n      or\n      swap1\n      sstore\n      pop\n      0x20\n      dup3\n      add\n      mload\n      dup2\n      0x01\n      add\n      sstore\n      0x40\n      dup3\n      add\n      mload\n      dup2\n      0x02\n      add\n      swap1\n      dup1\n      mload\n      swap1\n      0x20\n      add\n      swap1\n      tag_46\n      swap3\n      swap2\n      swap1\n      tag_47\n      jump\t// in\n    tag_46:\n      pop\n      0x60\n      dup3\n      add\n      mload\n      dup2\n      0x03\n      add\n      exp(0x0100, 0x00)\n      dup2\n      sload\n      dup2\n      0xff\n      mul\n      not\n      and\n      swap1\n      dup4\n      iszero\n      iszero\n      mul\n      or\n      swap1\n      sstore\n      pop\n      swap1\n      pop\n      pop\n        /* \"contracts/InvestmentAdvice.sol\":2417:2418  0 */\n      0x00\n        /* \"contracts/InvestmentAdvice.sol\":2381:2390  _Investor */\n      0x01\n        /* \"contracts/InvestmentAdvice.sol\":2381:2413  _Investor.RecommendationsCounter */\n      0x05\n      add\n      0x00\n      swap1\n      sload\n      swap1\n      0x0100\n      exp\n      swap1\n      div\n      0xffff\n      and\n        /* \"contracts/InvestmentAdvice.sol\":2381:2418  _Investor.RecommendationsCounter == 0 */\n      0xffff\n      and\n      eq\n        /* \"contracts/InvestmentAdvice.sol\":2377:2505  if (_Investor.RecommendationsCounter == 0){\r... */\n      iszero\n      tag_48\n      jumpi\n        /* \"contracts/InvestmentAdvice.sol\":2453:2493  InvestmentAdviceContractStatus.InService */\n      0x01\n        /* \"contracts/InvestmentAdvice.sol\":2434:2443  _Investor */\n      dup1\n        /* \"contracts/InvestmentAdvice.sol\":2434:2450  _Investor.status */\n      0x05\n      add\n      0x02\n        /* \"contracts/InvestmentAdvice.sol\":2434:2493  _Investor.status = InvestmentAdviceContractStatus.InService */\n      0x0100\n      exp\n      dup2\n      sload\n      dup2\n      0xff\n      mul\n      not\n      and\n      swap1\n      dup4\n      0x03\n      dup2\n      gt\n      iszero\n      tag_49\n      jumpi\n      tag_50\n      tag_35\n      jump\t// in\n    tag_50:\n    tag_49:\n      mul\n      or\n      swap1\n      sstore\n      pop\n        /* \"contracts/InvestmentAdvice.sol\":2377:2505  if (_Investor.RecommendationsCounter == 0){\r... */\n    tag_48:\n        /* \"contracts/InvestmentAdvice.sol\":2515:2524  _Investor */\n      0x01\n        /* \"contracts/InvestmentAdvice.sol\":2515:2547  _Investor.RecommendationsCounter */\n      0x05\n      add\n      0x00\n        /* \"contracts/InvestmentAdvice.sol\":2515:2549  _Investor.RecommendationsCounter++ */\n      dup2\n      dup2\n      swap1\n      sload\n      swap1\n      0x0100\n      exp\n      swap1\n      div\n      0xffff\n      and\n      dup1\n      swap3\n      swap2\n      swap1\n      tag_51\n      swap1\n      tag_52\n      jump\t// in\n    tag_51:\n      swap2\n      swap1\n      0x0100\n      exp\n      dup2\n      sload\n      dup2\n      0xffff\n      mul\n      not\n      and\n      swap1\n      dup4\n      0xffff\n      and\n      mul\n      or\n      swap1\n      sstore\n      pop\n      pop\n        /* \"contracts/InvestmentAdvice.sol\":1698:2567  {\r... */\n      pop\n      pop\n      pop\n        /* \"contracts/InvestmentAdvice.sol\":1618:2567  function makeRecommendation(string calldata _stockRecommendation) public payable{\r... */\n      pop\n      pop\n      jump\t// out\n        /* \"contracts/InvestmentAdvice.sol\":2575:5088  function recommendationAccepted(uint16 _advisorIndex) public {\r... */\n    tag_15:\n        /* \"contracts/InvestmentAdvice.sol\":2773:2813  InvestmentAdviceContractStatus.InService */\n      0x01\n        /* \"contracts/InvestmentAdvice.sol\":2753:2813  _Investor.status == InvestmentAdviceContractStatus.InService */\n      0x03\n      dup2\n      gt\n      iszero\n      tag_54\n      jumpi\n      tag_55\n      tag_35\n      jump\t// in\n    tag_55:\n    tag_54:\n        /* \"contracts/InvestmentAdvice.sol\":2753:2762  _Investor */\n      0x01\n        /* \"contracts/InvestmentAdvice.sol\":2753:2769  _Investor.status */\n      0x05\n      add\n      0x02\n      swap1\n      sload\n      swap1\n      0x0100\n      exp\n      swap1\n      div\n      0xff\n      and\n        /* \"contracts/InvestmentAdvice.sol\":2753:2813  _Investor.status == InvestmentAdviceContractStatus.InService */\n      0x03\n      dup2\n      gt\n      iszero\n      tag_56\n      jumpi\n      tag_57\n      tag_35\n      jump\t// in\n    tag_57:\n    tag_56:\n      eq\n        /* \"contracts/InvestmentAdvice.sol\":2745:2853  require(_Investor.status == InvestmentAdviceContractStatus.InService, \"Investment advice already received\" ) */\n      tag_58\n      jumpi\n      mload(0x40)\n      0x08c379a000000000000000000000000000000000000000000000000000000000\n      dup2\n      mstore\n      0x04\n      add\n      tag_59\n      swap1\n      tag_40\n      jump\t// in\n    tag_59:\n      mload(0x40)\n      dup1\n      swap2\n      sub\n      swap1\n      revert\n    tag_58:\n        /* \"contracts/InvestmentAdvice.sol\":2924:2932  uint16 i */\n      0x00\n        /* \"contracts/InvestmentAdvice.sol\":2919:4120  for (uint16 i = 0; i <= _Investor.RecommendationsCounter; i++){\r... */\n    tag_60:\n        /* \"contracts/InvestmentAdvice.sol\":2943:2952  _Investor */\n      0x01\n        /* \"contracts/InvestmentAdvice.sol\":2943:2975  _Investor.RecommendationsCounter */\n      0x05\n      add\n      0x00\n      swap1\n      sload\n      swap1\n      0x0100\n      exp\n      swap1\n      div\n      0xffff\n      and\n        /* \"contracts/InvestmentAdvice.sol\":2938:2975  i <= _Investor.RecommendationsCounter */\n      0xffff\n      and\n        /* \"contracts/InvestmentAdvice.sol\":2938:2939  i */\n      dup2\n        /* \"contracts/InvestmentAdvice.sol\":2938:2975  i <= _Investor.RecommendationsCounter */\n      0xffff\n      and\n      gt\n        /* \"contracts/InvestmentAdvice.sol\":2919:4120  for (uint16 i = 0; i <= _Investor.RecommendationsCounter; i++){\r... */\n      tag_61\n      jumpi\n        /* \"contracts/InvestmentAdvice.sol\":3068:3081  _advisorIndex */\n      dup2\n        /* \"contracts/InvestmentAdvice.sol\":3064:3081  i== _advisorIndex */\n      0xffff\n      and\n        /* \"contracts/InvestmentAdvice.sol\":3064:3065  i */\n      dup2\n        /* \"contracts/InvestmentAdvice.sol\":3064:3081  i== _advisorIndex */\n      0xffff\n      and\n      eq\n        /* \"contracts/InvestmentAdvice.sol\":3061:4109  if(i== _advisorIndex){\r... */\n      iszero\n      tag_63\n      jumpi\n        /* \"contracts/InvestmentAdvice.sol\":3157:3161  true */\n      0x01\n        /* \"contracts/InvestmentAdvice.sol\":3101:3124  InvestorAdvisorsMapping */\n      0x07\n        /* \"contracts/InvestmentAdvice.sol\":3101:3139  InvestorAdvisorsMapping[_advisorIndex] */\n      0x00\n        /* \"contracts/InvestmentAdvice.sol\":3125:3138  _advisorIndex */\n      dup5\n        /* \"contracts/InvestmentAdvice.sol\":3101:3139  InvestorAdvisorsMapping[_advisorIndex] */\n      0xffff\n      and\n      0xffff\n      and\n      dup2\n      mstore\n      0x20\n      add\n      swap1\n      dup2\n      mstore\n      0x20\n      add\n      0x00\n      keccak256\n        /* \"contracts/InvestmentAdvice.sol\":3101:3154  InvestorAdvisorsMapping[_advisorIndex].AcceptedStatus */\n      0x03\n      add\n      0x00\n        /* \"contracts/InvestmentAdvice.sol\":3101:3161  InvestorAdvisorsMapping[_advisorIndex].AcceptedStatus = true */\n      0x0100\n      exp\n      dup2\n      sload\n      dup2\n      0xff\n      mul\n      not\n      and\n      swap1\n      dup4\n      iszero\n      iszero\n      mul\n      or\n      swap1\n      sstore\n      pop\n        /* \"contracts/InvestmentAdvice.sol\":3227:3269  InvestmentAdviceContractStatus.Recommended */\n      0x02\n        /* \"contracts/InvestmentAdvice.sol\":3208:3217  _Investor */\n      0x01\n        /* \"contracts/InvestmentAdvice.sol\":3208:3224  _Investor.status */\n      0x05\n      add\n      0x02\n        /* \"contracts/InvestmentAdvice.sol\":3208:3269  _Investor.status = InvestmentAdviceContractStatus.Recommended */\n      0x0100\n      exp\n      dup2\n      sload\n      dup2\n      0xff\n      mul\n      not\n      and\n      swap1\n      dup4\n      0x03\n      dup2\n      gt\n      iszero\n      tag_64\n      jumpi\n      tag_65\n      tag_35\n      jump\t// in\n    tag_65:\n    tag_64:\n      mul\n      or\n      swap1\n      sstore\n      pop\n        /* \"contracts/InvestmentAdvice.sol\":3061:4109  if(i== _advisorIndex){\r... */\n      jump(tag_66)\n    tag_63:\n        /* \"contracts/InvestmentAdvice.sol\":3576:3598  uint256 _vAdvisorStake */\n      0x00\n        /* \"contracts/InvestmentAdvice.sol\":3601:3624  InvestorAdvisorsMapping */\n      0x07\n        /* \"contracts/InvestmentAdvice.sol\":3601:3627  InvestorAdvisorsMapping[i] */\n      0x00\n        /* \"contracts/InvestmentAdvice.sol\":3625:3626  i */\n      dup4\n        /* \"contracts/InvestmentAdvice.sol\":3601:3627  InvestorAdvisorsMapping[i] */\n      0xffff\n      and\n      0xffff\n      and\n      dup2\n      mstore\n      0x20\n      add\n      swap1\n      dup2\n      mstore\n      0x20\n      add\n      0x00\n      keccak256\n        /* \"contracts/InvestmentAdvice.sol\":3601:3640  InvestorAdvisorsMapping[i].AdvisorStake */\n      0x01\n      add\n      sload\n        /* \"contracts/InvestmentAdvice.sol\":3576:3640  uint256 _vAdvisorStake = InvestorAdvisorsMapping[i].AdvisorStake */\n      swap1\n      pop\n        /* \"contracts/InvestmentAdvice.sol\":3774:3775  0 */\n      0x00\n        /* \"contracts/InvestmentAdvice.sol\":3732:3755  InvestorAdvisorsMapping */\n      0x07\n        /* \"contracts/InvestmentAdvice.sol\":3732:3758  InvestorAdvisorsMapping[i] */\n      0x00\n        /* \"contracts/InvestmentAdvice.sol\":3756:3757  i */\n      dup5\n        /* \"contracts/InvestmentAdvice.sol\":3732:3758  InvestorAdvisorsMapping[i] */\n      0xffff\n      and\n      0xffff\n      and\n      dup2\n      mstore\n      0x20\n      add\n      swap1\n      dup2\n      mstore\n      0x20\n      add\n      0x00\n      keccak256\n        /* \"contracts/InvestmentAdvice.sol\":3732:3771  InvestorAdvisorsMapping[i].AdvisorStake */\n      0x01\n      add\n        /* \"contracts/InvestmentAdvice.sol\":3732:3775  InvestorAdvisorsMapping[i].AdvisorStake = 0 */\n      dup2\n      swap1\n      sstore\n      pop\n        /* \"contracts/InvestmentAdvice.sol\":3906:3929  InvestorAdvisorsMapping */\n      0x07\n        /* \"contracts/InvestmentAdvice.sol\":3906:3932  InvestorAdvisorsMapping[i] */\n      0x00\n        /* \"contracts/InvestmentAdvice.sol\":3930:3931  i */\n      dup4\n        /* \"contracts/InvestmentAdvice.sol\":3906:3932  InvestorAdvisorsMapping[i] */\n      0xffff\n      and\n      0xffff\n      and\n      dup2\n      mstore\n      0x20\n      add\n      swap1\n      dup2\n      mstore\n      0x20\n      add\n      0x00\n      keccak256\n        /* \"contracts/InvestmentAdvice.sol\":3906:3947  InvestorAdvisorsMapping[i].AdvisorAddress */\n      0x00\n      add\n      0x00\n      swap1\n      sload\n      swap1\n      0x0100\n      exp\n      swap1\n      div\n      0xffffffffffffffffffffffffffffffffffffffff\n      and\n        /* \"contracts/InvestmentAdvice.sol\":3898:3953  payable(InvestorAdvisorsMapping[i].AdvisorAddress).send */\n      0xffffffffffffffffffffffffffffffffffffffff\n      and\n        /* \"contracts/InvestmentAdvice.sol\":3898:3994  payable(InvestorAdvisorsMapping[i].AdvisorAddress).send(InvestorAdvisorsMapping[i].AdvisorStake) */\n      0x08fc\n        /* \"contracts/InvestmentAdvice.sol\":3954:3977  InvestorAdvisorsMapping */\n      0x07\n        /* \"contracts/InvestmentAdvice.sol\":3954:3980  InvestorAdvisorsMapping[i] */\n      0x00\n        /* \"contracts/InvestmentAdvice.sol\":3978:3979  i */\n      dup6\n        /* \"contracts/InvestmentAdvice.sol\":3954:3980  InvestorAdvisorsMapping[i] */\n      0xffff\n      and\n      0xffff\n      and\n      dup2\n      mstore\n      0x20\n      add\n      swap1\n      dup2\n      mstore\n      0x20\n      add\n      0x00\n      keccak256\n        /* \"contracts/InvestmentAdvice.sol\":3954:3993  InvestorAdvisorsMapping[i].AdvisorStake */\n      0x01\n      add\n      sload\n        /* \"contracts/InvestmentAdvice.sol\":3898:3994  payable(InvestorAdvisorsMapping[i].AdvisorAddress).send(InvestorAdvisorsMapping[i].AdvisorStake) */\n      swap1\n      dup2\n      iszero\n      mul\n      swap1\n      mload(0x40)\n      0x00\n      mload(0x40)\n      dup1\n      dup4\n      sub\n      dup2\n      dup6\n      dup9\n      dup9\n      call\n      swap4\n      pop\n      pop\n      pop\n      pop\n        /* \"contracts/InvestmentAdvice.sol\":3894:4094  if(!payable(InvestorAdvisorsMapping[i].AdvisorAddress).send(InvestorAdvisorsMapping[i].AdvisorStake)){\r... */\n      tag_68\n      jumpi\n        /* \"contracts/InvestmentAdvice.sol\":4060:4074  _vAdvisorStake */\n      dup1\n        /* \"contracts/InvestmentAdvice.sol\":4018:4041  InvestorAdvisorsMapping */\n      0x07\n        /* \"contracts/InvestmentAdvice.sol\":4018:4044  InvestorAdvisorsMapping[i] */\n      0x00\n        /* \"contracts/InvestmentAdvice.sol\":4042:4043  i */\n      dup5\n        /* \"contracts/InvestmentAdvice.sol\":4018:4044  InvestorAdvisorsMapping[i] */\n      0xffff\n      and\n      0xffff\n      and\n      dup2\n      mstore\n      0x20\n      add\n      swap1\n      dup2\n      mstore\n      0x20\n      add\n      0x00\n      keccak256\n        /* \"contracts/InvestmentAdvice.sol\":4018:4057  InvestorAdvisorsMapping[i].AdvisorStake */\n      0x01\n      add\n        /* \"contracts/InvestmentAdvice.sol\":4018:4074  InvestorAdvisorsMapping[i].AdvisorStake = _vAdvisorStake */\n      dup2\n      swap1\n      sstore\n      pop\n        /* \"contracts/InvestmentAdvice.sol\":3894:4094  if(!payable(InvestorAdvisorsMapping[i].AdvisorAddress).send(InvestorAdvisorsMapping[i].AdvisorStake)){\r... */\n    tag_68:\n        /* \"contracts/InvestmentAdvice.sol\":3419:4109  {\r... */\n      pop\n        /* \"contracts/InvestmentAdvice.sol\":3061:4109  if(i== _advisorIndex){\r... */\n    tag_66:\n        /* \"contracts/InvestmentAdvice.sol\":2977:2980  i++ */\n      dup1\n      dup1\n      tag_69\n      swap1\n      tag_52\n      jump\t// in\n    tag_69:\n      swap2\n      pop\n      pop\n        /* \"contracts/InvestmentAdvice.sol\":2919:4120  for (uint16 i = 0; i <= _Investor.RecommendationsCounter; i++){\r... */\n      jump(tag_60)\n    tag_61:\n      pop\n        /* \"contracts/InvestmentAdvice.sol\":2575:5088  function recommendationAccepted(uint16 _advisorIndex) public {\r... */\n      pop\n      jump\t// out\n        /* \"contracts/InvestmentAdvice.sol\":627:652  Investor public _Investor */\n    tag_18:\n      0x01\n      dup1\n      0x00\n      add\n      0x00\n      swap1\n      sload\n      swap1\n      0x0100\n      exp\n      swap1\n      div\n      0xffffffffffffffffffffffffffffffffffffffff\n      and\n      swap1\n      dup1\n      0x01\n      add\n      sload\n      swap1\n      dup1\n      0x02\n      add\n      sload\n      swap1\n      dup1\n      0x03\n      add\n      sload\n      swap1\n      dup1\n      0x04\n      add\n      sload\n      swap1\n      dup1\n      0x05\n      add\n      0x00\n      swap1\n      sload\n      swap1\n      0x0100\n      exp\n      swap1\n      div\n      0xffff\n      and\n      swap1\n      dup1\n      0x05\n      add\n      0x02\n      swap1\n      sload\n      swap1\n      0x0100\n      exp\n      swap1\n      div\n      0xff\n      and\n      swap1\n      pop\n      dup8\n      jump\t// out\n        /* \"contracts/InvestmentAdvice.sol\":176:228  uint256 public NativeBalance = address(this).balance */\n    tag_23:\n      sload(0x00)\n      dup2\n      jump\t// out\n        /* \"contracts/InvestmentAdvice.sol\":900:957  mapping(uint16 => Advisor) public InvestorAdvisorsMapping */\n    tag_29:\n      mstore(0x20, 0x07)\n      dup1\n      0x00\n      mstore\n      keccak256(0x00, 0x40)\n      0x00\n      swap2\n      pop\n      swap1\n      pop\n      dup1\n      0x00\n      add\n      0x00\n      swap1\n      sload\n      swap1\n      0x0100\n      exp\n      swap1\n      div\n      0xffffffffffffffffffffffffffffffffffffffff\n      and\n      swap1\n      dup1\n      0x01\n      add\n      sload\n      swap1\n      dup1\n      0x02\n      add\n      dup1\n      sload\n      tag_70\n      swap1\n      tag_71\n      jump\t// in\n    tag_70:\n      dup1\n      0x1f\n      add\n      0x20\n      dup1\n      swap2\n      div\n      mul\n      0x20\n      add\n      mload(0x40)\n      swap1\n      dup2\n      add\n      0x40\n      mstore\n      dup1\n      swap3\n      swap2\n      swap1\n      dup2\n      dup2\n      mstore\n      0x20\n      add\n      dup3\n      dup1\n      sload\n      tag_72\n      swap1\n      tag_71\n      jump\t// in\n    tag_72:\n      dup1\n      iszero\n      tag_73\n      jumpi\n      dup1\n      0x1f\n      lt\n      tag_74\n      jumpi\n      0x0100\n      dup1\n      dup4\n      sload\n      div\n      mul\n      dup4\n      mstore\n      swap2\n      0x20\n      add\n      swap2\n      jump(tag_73)\n    tag_74:\n      dup3\n      add\n      swap2\n      swap1\n      0x00\n      mstore\n      keccak256(0x00, 0x20)\n      swap1\n    tag_75:\n      dup2\n      sload\n      dup2\n      mstore\n      swap1\n      0x01\n      add\n      swap1\n      0x20\n      add\n      dup1\n      dup4\n      gt\n      tag_75\n      jumpi\n      dup3\n      swap1\n      sub\n      0x1f\n      and\n      dup3\n      add\n      swap2\n    tag_73:\n      pop\n      pop\n      pop\n      pop\n      pop\n      swap1\n      dup1\n      0x03\n      add\n      0x00\n      swap1\n      sload\n      swap1\n      0x0100\n      exp\n      swap1\n      div\n      0xff\n      and\n      swap1\n      pop\n      dup5\n      jump\t// out\n    tag_45:\n      mload(0x40)\n      dup1\n      0x80\n      add\n      0x40\n      mstore\n      dup1\n      and(0xffffffffffffffffffffffffffffffffffffffff, 0x00)\n      dup2\n      mstore\n      0x20\n      add\n      0x00\n      dup2\n      mstore\n      0x20\n      add\n      0x60\n      dup2\n      mstore\n      0x20\n      add\n      iszero(iszero(0x00))\n      dup2\n      mstore\n      pop\n      swap1\n      jump\t// out\n    tag_47:\n      dup3\n      dup1\n      sload\n      tag_76\n      swap1\n      tag_71\n      jump\t// in\n    tag_76:\n      swap1\n      0x00\n      mstore\n      keccak256(0x00, 0x20)\n      swap1\n      0x1f\n      add\n      0x20\n      swap1\n      div\n      dup2\n      add\n      swap3\n      dup3\n      tag_78\n      jumpi\n      0x00\n      dup6\n      sstore\n      jump(tag_77)\n    tag_78:\n      dup3\n      0x1f\n      lt\n      tag_79\n      jumpi\n      dup1\n      mload\n      not(0xff)\n      and\n      dup4\n      dup1\n      add\n      or\n      dup6\n      sstore\n      jump(tag_77)\n    tag_79:\n      dup3\n      dup1\n      add\n      0x01\n      add\n      dup6\n      sstore\n      dup3\n      iszero\n      tag_77\n      jumpi\n      swap2\n      dup3\n      add\n    tag_80:\n      dup3\n      dup2\n      gt\n      iszero\n      tag_81\n      jumpi\n      dup3\n      mload\n      dup3\n      sstore\n      swap2\n      0x20\n      add\n      swap2\n      swap1\n      0x01\n      add\n      swap1\n      jump(tag_80)\n    tag_81:\n    tag_77:\n      pop\n      swap1\n      pop\n      tag_82\n      swap2\n      swap1\n      tag_83\n      jump\t// in\n    tag_82:\n      pop\n      swap1\n      jump\t// out\n    tag_83:\n    tag_84:\n      dup1\n      dup3\n      gt\n      iszero\n      tag_85\n      jumpi\n      0x00\n      dup2\n      0x00\n      swap1\n      sstore\n      pop\n      0x01\n      add\n      jump(tag_84)\n    tag_85:\n      pop\n      swap1\n      jump\t// out\n        /* \"#utility.yul\":21:574   */\n    tag_87:\n        /* \"#utility.yul\":79:87   */\n      0x00\n        /* \"#utility.yul\":89:95   */\n      dup1\n        /* \"#utility.yul\":139:142   */\n      dup4\n        /* \"#utility.yul\":132:136   */\n      0x1f\n        /* \"#utility.yul\":124:130   */\n      dup5\n        /* \"#utility.yul\":120:137   */\n      add\n        /* \"#utility.yul\":116:143   */\n      slt\n        /* \"#utility.yul\":106:228   */\n      tag_89\n      jumpi\n        /* \"#utility.yul\":147:226   */\n      tag_90\n      tag_91\n      jump\t// in\n    tag_90:\n        /* \"#utility.yul\":106:228   */\n    tag_89:\n        /* \"#utility.yul\":260:266   */\n      dup3\n        /* \"#utility.yul\":247:267   */\n      calldataload\n        /* \"#utility.yul\":237:267   */\n      swap1\n      pop\n        /* \"#utility.yul\":290:308   */\n      0xffffffffffffffff\n        /* \"#utility.yul\":282:288   */\n      dup2\n        /* \"#utility.yul\":279:309   */\n      gt\n        /* \"#utility.yul\":276:393   */\n      iszero\n      tag_92\n      jumpi\n        /* \"#utility.yul\":312:391   */\n      tag_93\n      tag_94\n      jump\t// in\n    tag_93:\n        /* \"#utility.yul\":276:393   */\n    tag_92:\n        /* \"#utility.yul\":426:430   */\n      0x20\n        /* \"#utility.yul\":418:424   */\n      dup4\n        /* \"#utility.yul\":414:431   */\n      add\n        /* \"#utility.yul\":402:431   */\n      swap2\n      pop\n        /* \"#utility.yul\":480:483   */\n      dup4\n        /* \"#utility.yul\":472:476   */\n      0x01\n        /* \"#utility.yul\":464:470   */\n      dup3\n        /* \"#utility.yul\":460:477   */\n      mul\n        /* \"#utility.yul\":450:458   */\n      dup4\n        /* \"#utility.yul\":446:478   */\n      add\n        /* \"#utility.yul\":443:484   */\n      gt\n        /* \"#utility.yul\":440:568   */\n      iszero\n      tag_95\n      jumpi\n        /* \"#utility.yul\":487:566   */\n      tag_96\n      tag_97\n      jump\t// in\n    tag_96:\n        /* \"#utility.yul\":440:568   */\n    tag_95:\n        /* \"#utility.yul\":21:574   */\n      swap3\n      pop\n      swap3\n      swap1\n      pop\n      jump\t// out\n        /* \"#utility.yul\":580:717   */\n    tag_98:\n        /* \"#utility.yul\":625:630   */\n      0x00\n        /* \"#utility.yul\":663:669   */\n      dup2\n        /* \"#utility.yul\":650:670   */\n      calldataload\n        /* \"#utility.yul\":641:670   */\n      swap1\n      pop\n        /* \"#utility.yul\":679:711   */\n      tag_100\n        /* \"#utility.yul\":705:710   */\n      dup2\n        /* \"#utility.yul\":679:711   */\n      tag_101\n      jump\t// in\n    tag_100:\n        /* \"#utility.yul\":580:717   */\n      swap3\n      swap2\n      pop\n      pop\n      jump\t// out\n        /* \"#utility.yul\":723:1252   */\n    tag_9:\n        /* \"#utility.yul\":794:800   */\n      0x00\n        /* \"#utility.yul\":802:808   */\n      dup1\n        /* \"#utility.yul\":851:853   */\n      0x20\n        /* \"#utility.yul\":839:848   */\n      dup4\n        /* \"#utility.yul\":830:837   */\n      dup6\n        /* \"#utility.yul\":826:849   */\n      sub\n        /* \"#utility.yul\":822:854   */\n      slt\n        /* \"#utility.yul\":819:938   */\n      iszero\n      tag_103\n      jumpi\n        /* \"#utility.yul\":857:936   */\n      tag_104\n      tag_105\n      jump\t// in\n    tag_104:\n        /* \"#utility.yul\":819:938   */\n    tag_103:\n        /* \"#utility.yul\":1005:1006   */\n      0x00\n        /* \"#utility.yul\":994:1003   */\n      dup4\n        /* \"#utility.yul\":990:1007   */\n      add\n        /* \"#utility.yul\":977:1008   */\n      calldataload\n        /* \"#utility.yul\":1035:1053   */\n      0xffffffffffffffff\n        /* \"#utility.yul\":1027:1033   */\n      dup2\n        /* \"#utility.yul\":1024:1054   */\n      gt\n        /* \"#utility.yul\":1021:1138   */\n      iszero\n      tag_106\n      jumpi\n        /* \"#utility.yul\":1057:1136   */\n      tag_107\n      tag_108\n      jump\t// in\n    tag_107:\n        /* \"#utility.yul\":1021:1138   */\n    tag_106:\n        /* \"#utility.yul\":1170:1235   */\n      tag_109\n        /* \"#utility.yul\":1227:1234   */\n      dup6\n        /* \"#utility.yul\":1218:1224   */\n      dup3\n        /* \"#utility.yul\":1207:1216   */\n      dup7\n        /* \"#utility.yul\":1203:1225   */\n      add\n        /* \"#utility.yul\":1170:1235   */\n      tag_87\n      jump\t// in\n    tag_109:\n        /* \"#utility.yul\":1152:1235   */\n      swap3\n      pop\n      swap3\n      pop\n        /* \"#utility.yul\":948:1245   */\n      pop\n        /* \"#utility.yul\":723:1252   */\n      swap3\n      pop\n      swap3\n      swap1\n      pop\n      jump\t// out\n        /* \"#utility.yul\":1258:1585   */\n    tag_14:\n        /* \"#utility.yul\":1316:1322   */\n      0x00\n        /* \"#utility.yul\":1365:1367   */\n      0x20\n        /* \"#utility.yul\":1353:1362   */\n      dup3\n        /* \"#utility.yul\":1344:1351   */\n      dup5\n        /* \"#utility.yul\":1340:1363   */\n      sub\n        /* \"#utility.yul\":1336:1368   */\n      slt\n        /* \"#utility.yul\":1333:1452   */\n      iszero\n      tag_111\n      jumpi\n        /* \"#utility.yul\":1371:1450   */\n      tag_112\n      tag_105\n      jump\t// in\n    tag_112:\n        /* \"#utility.yul\":1333:1452   */\n    tag_111:\n        /* \"#utility.yul\":1491:1492   */\n      0x00\n        /* \"#utility.yul\":1516:1568   */\n      tag_113\n        /* \"#utility.yul\":1560:1567   */\n      dup5\n        /* \"#utility.yul\":1551:1557   */\n      dup3\n        /* \"#utility.yul\":1540:1549   */\n      dup6\n        /* \"#utility.yul\":1536:1558   */\n      add\n        /* \"#utility.yul\":1516:1568   */\n      tag_98\n      jump\t// in\n    tag_113:\n        /* \"#utility.yul\":1506:1568   */\n      swap2\n      pop\n        /* \"#utility.yul\":1462:1578   */\n      pop\n        /* \"#utility.yul\":1258:1585   */\n      swap3\n      swap2\n      pop\n      pop\n      jump\t// out\n        /* \"#utility.yul\":1591:1709   */\n    tag_114:\n        /* \"#utility.yul\":1678:1702   */\n      tag_116\n        /* \"#utility.yul\":1696:1701   */\n      dup2\n        /* \"#utility.yul\":1678:1702   */\n      tag_117\n      jump\t// in\n    tag_116:\n        /* \"#utility.yul\":1673:1676   */\n      dup3\n        /* \"#utility.yul\":1666:1703   */\n      mstore\n        /* \"#utility.yul\":1591:1709   */\n      pop\n      pop\n      jump\t// out\n        /* \"#utility.yul\":1715:1824   */\n    tag_118:\n        /* \"#utility.yul\":1796:1817   */\n      tag_120\n        /* \"#utility.yul\":1811:1816   */\n      dup2\n        /* \"#utility.yul\":1796:1817   */\n      tag_121\n      jump\t// in\n    tag_120:\n        /* \"#utility.yul\":1791:1794   */\n      dup3\n        /* \"#utility.yul\":1784:1818   */\n      mstore\n        /* \"#utility.yul\":1715:1824   */\n      pop\n      pop\n      jump\t// out\n        /* \"#utility.yul\":1830:2021   */\n    tag_122:\n        /* \"#utility.yul\":1947:2014   */\n      tag_124\n        /* \"#utility.yul\":2008:2013   */\n      dup2\n        /* \"#utility.yul\":1947:2014   */\n      tag_125\n      jump\t// in\n    tag_124:\n        /* \"#utility.yul\":1942:1945   */\n      dup3\n        /* \"#utility.yul\":1935:2015   */\n      mstore\n        /* \"#utility.yul\":1830:2021   */\n      pop\n      pop\n      jump\t// out\n        /* \"#utility.yul\":2027:2391   */\n    tag_126:\n        /* \"#utility.yul\":2115:2118   */\n      0x00\n        /* \"#utility.yul\":2143:2182   */\n      tag_128\n        /* \"#utility.yul\":2176:2181   */\n      dup3\n        /* \"#utility.yul\":2143:2182   */\n      tag_129\n      jump\t// in\n    tag_128:\n        /* \"#utility.yul\":2198:2269   */\n      tag_130\n        /* \"#utility.yul\":2262:2268   */\n      dup2\n        /* \"#utility.yul\":2257:2260   */\n      dup6\n        /* \"#utility.yul\":2198:2269   */\n      tag_131\n      jump\t// in\n    tag_130:\n        /* \"#utility.yul\":2191:2269   */\n      swap4\n      pop\n        /* \"#utility.yul\":2278:2330   */\n      tag_132\n        /* \"#utility.yul\":2323:2329   */\n      dup2\n        /* \"#utility.yul\":2318:2321   */\n      dup6\n        /* \"#utility.yul\":2311:2315   */\n      0x20\n        /* \"#utility.yul\":2304:2309   */\n      dup7\n        /* \"#utility.yul\":2300:2316   */\n      add\n        /* \"#utility.yul\":2278:2330   */\n      tag_133\n      jump\t// in\n    tag_132:\n        /* \"#utility.yul\":2355:2384   */\n      tag_134\n        /* \"#utility.yul\":2377:2383   */\n      dup2\n        /* \"#utility.yul\":2355:2384   */\n      tag_135\n      jump\t// in\n    tag_134:\n        /* \"#utility.yul\":2350:2353   */\n      dup5\n        /* \"#utility.yul\":2346:2385   */\n      add\n        /* \"#utility.yul\":2339:2385   */\n      swap2\n      pop\n        /* \"#utility.yul\":2119:2391   */\n      pop\n        /* \"#utility.yul\":2027:2391   */\n      swap3\n      swap2\n      pop\n      pop\n      jump\t// out\n        /* \"#utility.yul\":2397:2763   */\n    tag_136:\n        /* \"#utility.yul\":2539:2542   */\n      0x00\n        /* \"#utility.yul\":2560:2627   */\n      tag_138\n        /* \"#utility.yul\":2624:2626   */\n      0x35\n        /* \"#utility.yul\":2619:2622   */\n      dup4\n        /* \"#utility.yul\":2560:2627   */\n      tag_131\n      jump\t// in\n    tag_138:\n        /* \"#utility.yul\":2553:2627   */\n      swap2\n      pop\n        /* \"#utility.yul\":2636:2729   */\n      tag_139\n        /* \"#utility.yul\":2725:2728   */\n      dup3\n        /* \"#utility.yul\":2636:2729   */\n      tag_140\n      jump\t// in\n    tag_139:\n        /* \"#utility.yul\":2754:2756   */\n      0x40\n        /* \"#utility.yul\":2749:2752   */\n      dup3\n        /* \"#utility.yul\":2745:2757   */\n      add\n        /* \"#utility.yul\":2738:2757   */\n      swap1\n      pop\n        /* \"#utility.yul\":2397:2763   */\n      swap2\n      swap1\n      pop\n      jump\t// out\n        /* \"#utility.yul\":2769:3135   */\n    tag_141:\n        /* \"#utility.yul\":2911:2914   */\n      0x00\n        /* \"#utility.yul\":2932:2999   */\n      tag_143\n        /* \"#utility.yul\":2996:2998   */\n      0x22\n        /* \"#utility.yul\":2991:2994   */\n      dup4\n        /* \"#utility.yul\":2932:2999   */\n      tag_131\n      jump\t// in\n    tag_143:\n        /* \"#utility.yul\":2925:2999   */\n      swap2\n      pop\n        /* \"#utility.yul\":3008:3101   */\n      tag_144\n        /* \"#utility.yul\":3097:3100   */\n      dup3\n        /* \"#utility.yul\":3008:3101   */\n      tag_145\n      jump\t// in\n    tag_144:\n        /* \"#utility.yul\":3126:3128   */\n      0x40\n        /* \"#utility.yul\":3121:3124   */\n      dup3\n        /* \"#utility.yul\":3117:3129   */\n      add\n        /* \"#utility.yul\":3110:3129   */\n      swap1\n      pop\n        /* \"#utility.yul\":2769:3135   */\n      swap2\n      swap1\n      pop\n      jump\t// out\n        /* \"#utility.yul\":3141:3256   */\n    tag_146:\n        /* \"#utility.yul\":3226:3249   */\n      tag_148\n        /* \"#utility.yul\":3243:3248   */\n      dup2\n        /* \"#utility.yul\":3226:3249   */\n      tag_149\n      jump\t// in\n    tag_148:\n        /* \"#utility.yul\":3221:3224   */\n      dup3\n        /* \"#utility.yul\":3214:3250   */\n      mstore\n        /* \"#utility.yul\":3141:3256   */\n      pop\n      pop\n      jump\t// out\n        /* \"#utility.yul\":3262:3380   */\n    tag_150:\n        /* \"#utility.yul\":3349:3373   */\n      tag_152\n        /* \"#utility.yul\":3367:3372   */\n      dup2\n        /* \"#utility.yul\":3349:3373   */\n      tag_153\n      jump\t// in\n    tag_152:\n        /* \"#utility.yul\":3344:3347   */\n      dup3\n        /* \"#utility.yul\":3337:3374   */\n      mstore\n        /* \"#utility.yul\":3262:3380   */\n      pop\n      pop\n      jump\t// out\n        /* \"#utility.yul\":3386:4018   */\n    tag_31:\n        /* \"#utility.yul\":3577:3581   */\n      0x00\n        /* \"#utility.yul\":3615:3618   */\n      0x80\n        /* \"#utility.yul\":3604:3613   */\n      dup3\n        /* \"#utility.yul\":3600:3619   */\n      add\n        /* \"#utility.yul\":3592:3619   */\n      swap1\n      pop\n        /* \"#utility.yul\":3629:3700   */\n      tag_155\n        /* \"#utility.yul\":3697:3698   */\n      0x00\n        /* \"#utility.yul\":3686:3695   */\n      dup4\n        /* \"#utility.yul\":3682:3699   */\n      add\n        /* \"#utility.yul\":3673:3679   */\n      dup8\n        /* \"#utility.yul\":3629:3700   */\n      tag_114\n      jump\t// in\n    tag_155:\n        /* \"#utility.yul\":3710:3782   */\n      tag_156\n        /* \"#utility.yul\":3778:3780   */\n      0x20\n        /* \"#utility.yul\":3767:3776   */\n      dup4\n        /* \"#utility.yul\":3763:3781   */\n      add\n        /* \"#utility.yul\":3754:3760   */\n      dup7\n        /* \"#utility.yul\":3710:3782   */\n      tag_150\n      jump\t// in\n    tag_156:\n        /* \"#utility.yul\":3829:3838   */\n      dup2\n        /* \"#utility.yul\":3823:3827   */\n      dup2\n        /* \"#utility.yul\":3819:3839   */\n      sub\n        /* \"#utility.yul\":3814:3816   */\n      0x40\n        /* \"#utility.yul\":3803:3812   */\n      dup4\n        /* \"#utility.yul\":3799:3817   */\n      add\n        /* \"#utility.yul\":3792:3840   */\n      mstore\n        /* \"#utility.yul\":3857:3935   */\n      tag_157\n        /* \"#utility.yul\":3930:3934   */\n      dup2\n        /* \"#utility.yul\":3921:3927   */\n      dup6\n        /* \"#utility.yul\":3857:3935   */\n      tag_126\n      jump\t// in\n    tag_157:\n        /* \"#utility.yul\":3849:3935   */\n      swap1\n      pop\n        /* \"#utility.yul\":3945:4011   */\n      tag_158\n        /* \"#utility.yul\":4007:4009   */\n      0x60\n        /* \"#utility.yul\":3996:4005   */\n      dup4\n        /* \"#utility.yul\":3992:4010   */\n      add\n        /* \"#utility.yul\":3983:3989   */\n      dup5\n        /* \"#utility.yul\":3945:4011   */\n      tag_118\n      jump\t// in\n    tag_158:\n        /* \"#utility.yul\":3386:4018   */\n      swap6\n      swap5\n      pop\n      pop\n      pop\n      pop\n      pop\n      jump\t// out\n        /* \"#utility.yul\":4024:4966   */\n    tag_20:\n        /* \"#utility.yul\":4313:4317   */\n      0x00\n        /* \"#utility.yul\":4351:4354   */\n      0xe0\n        /* \"#utility.yul\":4340:4349   */\n      dup3\n        /* \"#utility.yul\":4336:4355   */\n      add\n        /* \"#utility.yul\":4328:4355   */\n      swap1\n      pop\n        /* \"#utility.yul\":4365:4436   */\n      tag_160\n        /* \"#utility.yul\":4433:4434   */\n      0x00\n        /* \"#utility.yul\":4422:4431   */\n      dup4\n        /* \"#utility.yul\":4418:4435   */\n      add\n        /* \"#utility.yul\":4409:4415   */\n      dup11\n        /* \"#utility.yul\":4365:4436   */\n      tag_114\n      jump\t// in\n    tag_160:\n        /* \"#utility.yul\":4446:4518   */\n      tag_161\n        /* \"#utility.yul\":4514:4516   */\n      0x20\n        /* \"#utility.yul\":4503:4512   */\n      dup4\n        /* \"#utility.yul\":4499:4517   */\n      add\n        /* \"#utility.yul\":4490:4496   */\n      dup10\n        /* \"#utility.yul\":4446:4518   */\n      tag_150\n      jump\t// in\n    tag_161:\n        /* \"#utility.yul\":4528:4600   */\n      tag_162\n        /* \"#utility.yul\":4596:4598   */\n      0x40\n        /* \"#utility.yul\":4585:4594   */\n      dup4\n        /* \"#utility.yul\":4581:4599   */\n      add\n        /* \"#utility.yul\":4572:4578   */\n      dup9\n        /* \"#utility.yul\":4528:4600   */\n      tag_150\n      jump\t// in\n    tag_162:\n        /* \"#utility.yul\":4610:4682   */\n      tag_163\n        /* \"#utility.yul\":4678:4680   */\n      0x60\n        /* \"#utility.yul\":4667:4676   */\n      dup4\n        /* \"#utility.yul\":4663:4681   */\n      add\n        /* \"#utility.yul\":4654:4660   */\n      dup8\n        /* \"#utility.yul\":4610:4682   */\n      tag_150\n      jump\t// in\n    tag_163:\n        /* \"#utility.yul\":4692:4765   */\n      tag_164\n        /* \"#utility.yul\":4760:4763   */\n      0x80\n        /* \"#utility.yul\":4749:4758   */\n      dup4\n        /* \"#utility.yul\":4745:4764   */\n      add\n        /* \"#utility.yul\":4736:4742   */\n      dup7\n        /* \"#utility.yul\":4692:4765   */\n      tag_150\n      jump\t// in\n    tag_164:\n        /* \"#utility.yul\":4775:4846   */\n      tag_165\n        /* \"#utility.yul\":4841:4844   */\n      0xa0\n        /* \"#utility.yul\":4830:4839   */\n      dup4\n        /* \"#utility.yul\":4826:4845   */\n      add\n        /* \"#utility.yul\":4817:4823   */\n      dup6\n        /* \"#utility.yul\":4775:4846   */\n      tag_146\n      jump\t// in\n    tag_165:\n        /* \"#utility.yul\":4856:4959   */\n      tag_166\n        /* \"#utility.yul\":4954:4957   */\n      0xc0\n        /* \"#utility.yul\":4943:4952   */\n      dup4\n        /* \"#utility.yul\":4939:4958   */\n      add\n        /* \"#utility.yul\":4930:4936   */\n      dup5\n        /* \"#utility.yul\":4856:4959   */\n      tag_122\n      jump\t// in\n    tag_166:\n        /* \"#utility.yul\":4024:4966   */\n      swap9\n      swap8\n      pop\n      pop\n      pop\n      pop\n      pop\n      pop\n      pop\n      pop\n      jump\t// out\n        /* \"#utility.yul\":4972:5391   */\n    tag_43:\n        /* \"#utility.yul\":5138:5142   */\n      0x00\n        /* \"#utility.yul\":5176:5178   */\n      0x20\n        /* \"#utility.yul\":5165:5174   */\n      dup3\n        /* \"#utility.yul\":5161:5179   */\n      add\n        /* \"#utility.yul\":5153:5179   */\n      swap1\n      pop\n        /* \"#utility.yul\":5225:5234   */\n      dup2\n        /* \"#utility.yul\":5219:5223   */\n      dup2\n        /* \"#utility.yul\":5215:5235   */\n      sub\n        /* \"#utility.yul\":5211:5212   */\n      0x00\n        /* \"#utility.yul\":5200:5209   */\n      dup4\n        /* \"#utility.yul\":5196:5213   */\n      add\n        /* \"#utility.yul\":5189:5236   */\n      mstore\n        /* \"#utility.yul\":5253:5384   */\n      tag_168\n        /* \"#utility.yul\":5379:5383   */\n      dup2\n        /* \"#utility.yul\":5253:5384   */\n      tag_136\n      jump\t// in\n    tag_168:\n        /* \"#utility.yul\":5245:5384   */\n      swap1\n      pop\n        /* \"#utility.yul\":4972:5391   */\n      swap2\n      swap1\n      pop\n      jump\t// out\n        /* \"#utility.yul\":5397:5816   */\n    tag_40:\n        /* \"#utility.yul\":5563:5567   */\n      0x00\n        /* \"#utility.yul\":5601:5603   */\n      0x20\n        /* \"#utility.yul\":5590:5599   */\n      dup3\n        /* \"#utility.yul\":5586:5604   */\n      add\n        /* \"#utility.yul\":5578:5604   */\n      swap1\n      pop\n        /* \"#utility.yul\":5650:5659   */\n      dup2\n        /* \"#utility.yul\":5644:5648   */\n      dup2\n        /* \"#utility.yul\":5640:5660   */\n      sub\n        /* \"#utility.yul\":5636:5637   */\n      0x00\n        /* \"#utility.yul\":5625:5634   */\n      dup4\n        /* \"#utility.yul\":5621:5638   */\n      add\n        /* \"#utility.yul\":5614:5661   */\n      mstore\n        /* \"#utility.yul\":5678:5809   */\n      tag_170\n        /* \"#utility.yul\":5804:5808   */\n      dup2\n        /* \"#utility.yul\":5678:5809   */\n      tag_141\n      jump\t// in\n    tag_170:\n        /* \"#utility.yul\":5670:5809   */\n      swap1\n      pop\n        /* \"#utility.yul\":5397:5816   */\n      swap2\n      swap1\n      pop\n      jump\t// out\n        /* \"#utility.yul\":5822:6044   */\n    tag_25:\n        /* \"#utility.yul\":5915:5919   */\n      0x00\n        /* \"#utility.yul\":5953:5955   */\n      0x20\n        /* \"#utility.yul\":5942:5951   */\n      dup3\n        /* \"#utility.yul\":5938:5956   */\n      add\n        /* \"#utility.yul\":5930:5956   */\n      swap1\n      pop\n        /* \"#utility.yul\":5966:6037   */\n      tag_172\n        /* \"#utility.yul\":6034:6035   */\n      0x00\n        /* \"#utility.yul\":6023:6032   */\n      dup4\n        /* \"#utility.yul\":6019:6036   */\n      add\n        /* \"#utility.yul\":6010:6016   */\n      dup5\n        /* \"#utility.yul\":5966:6037   */\n      tag_150\n      jump\t// in\n    tag_172:\n        /* \"#utility.yul\":5822:6044   */\n      swap3\n      swap2\n      pop\n      pop\n      jump\t// out\n        /* \"#utility.yul\":6131:6230   */\n    tag_129:\n        /* \"#utility.yul\":6183:6189   */\n      0x00\n        /* \"#utility.yul\":6217:6222   */\n      dup2\n        /* \"#utility.yul\":6211:6223   */\n      mload\n        /* \"#utility.yul\":6201:6223   */\n      swap1\n      pop\n        /* \"#utility.yul\":6131:6230   */\n      swap2\n      swap1\n      pop\n      jump\t// out\n        /* \"#utility.yul\":6236:6405   */\n    tag_131:\n        /* \"#utility.yul\":6320:6331   */\n      0x00\n        /* \"#utility.yul\":6354:6360   */\n      dup3\n        /* \"#utility.yul\":6349:6352   */\n      dup3\n        /* \"#utility.yul\":6342:6361   */\n      mstore\n        /* \"#utility.yul\":6394:6398   */\n      0x20\n        /* \"#utility.yul\":6389:6392   */\n      dup3\n        /* \"#utility.yul\":6385:6399   */\n      add\n        /* \"#utility.yul\":6370:6399   */\n      swap1\n      pop\n        /* \"#utility.yul\":6236:6405   */\n      swap3\n      swap2\n      pop\n      pop\n      jump\t// out\n        /* \"#utility.yul\":6411:6507   */\n    tag_117:\n        /* \"#utility.yul\":6448:6455   */\n      0x00\n        /* \"#utility.yul\":6477:6501   */\n      tag_178\n        /* \"#utility.yul\":6495:6500   */\n      dup3\n        /* \"#utility.yul\":6477:6501   */\n      tag_179\n      jump\t// in\n    tag_178:\n        /* \"#utility.yul\":6466:6501   */\n      swap1\n      pop\n        /* \"#utility.yul\":6411:6507   */\n      swap2\n      swap1\n      pop\n      jump\t// out\n        /* \"#utility.yul\":6513:6603   */\n    tag_121:\n        /* \"#utility.yul\":6547:6554   */\n      0x00\n        /* \"#utility.yul\":6590:6595   */\n      dup2\n        /* \"#utility.yul\":6583:6596   */\n      iszero\n        /* \"#utility.yul\":6576:6597   */\n      iszero\n        /* \"#utility.yul\":6565:6597   */\n      swap1\n      pop\n        /* \"#utility.yul\":6513:6603   */\n      swap2\n      swap1\n      pop\n      jump\t// out\n        /* \"#utility.yul\":6609:6784   */\n    tag_181:\n        /* \"#utility.yul\":6678:6685   */\n      0x00\n        /* \"#utility.yul\":6707:6712   */\n      dup2\n        /* \"#utility.yul\":6696:6712   */\n      swap1\n      pop\n        /* \"#utility.yul\":6713:6778   */\n      tag_183\n        /* \"#utility.yul\":6772:6777   */\n      dup3\n        /* \"#utility.yul\":6713:6778   */\n      tag_184\n      jump\t// in\n    tag_183:\n        /* \"#utility.yul\":6609:6784   */\n      swap2\n      swap1\n      pop\n      jump\t// out\n        /* \"#utility.yul\":6790:6879   */\n    tag_149:\n        /* \"#utility.yul\":6826:6833   */\n      0x00\n        /* \"#utility.yul\":6866:6872   */\n      0xffff\n        /* \"#utility.yul\":6859:6864   */\n      dup3\n        /* \"#utility.yul\":6855:6873   */\n      and\n        /* \"#utility.yul\":6844:6873   */\n      swap1\n      pop\n        /* \"#utility.yul\":6790:6879   */\n      swap2\n      swap1\n      pop\n      jump\t// out\n        /* \"#utility.yul\":6885:7011   */\n    tag_179:\n        /* \"#utility.yul\":6922:6929   */\n      0x00\n        /* \"#utility.yul\":6962:7004   */\n      0xffffffffffffffffffffffffffffffffffffffff\n        /* \"#utility.yul\":6955:6960   */\n      dup3\n        /* \"#utility.yul\":6951:7005   */\n      and\n        /* \"#utility.yul\":6940:7005   */\n      swap1\n      pop\n        /* \"#utility.yul\":6885:7011   */\n      swap2\n      swap1\n      pop\n      jump\t// out\n        /* \"#utility.yul\":7017:7094   */\n    tag_153:\n        /* \"#utility.yul\":7054:7061   */\n      0x00\n        /* \"#utility.yul\":7083:7088   */\n      dup2\n        /* \"#utility.yul\":7072:7088   */\n      swap1\n      pop\n        /* \"#utility.yul\":7017:7094   */\n      swap2\n      swap1\n      pop\n      jump\t// out\n        /* \"#utility.yul\":7100:7275   */\n    tag_125:\n        /* \"#utility.yul\":7180:7189   */\n      0x00\n        /* \"#utility.yul\":7213:7269   */\n      tag_189\n        /* \"#utility.yul\":7263:7268   */\n      dup3\n        /* \"#utility.yul\":7213:7269   */\n      tag_181\n      jump\t// in\n    tag_189:\n        /* \"#utility.yul\":7200:7269   */\n      swap1\n      pop\n        /* \"#utility.yul\":7100:7275   */\n      swap2\n      swap1\n      pop\n      jump\t// out\n        /* \"#utility.yul\":7281:7588   */\n    tag_133:\n        /* \"#utility.yul\":7349:7350   */\n      0x00\n        /* \"#utility.yul\":7359:7472   */\n    tag_191:\n        /* \"#utility.yul\":7373:7379   */\n      dup4\n        /* \"#utility.yul\":7370:7371   */\n      dup2\n        /* \"#utility.yul\":7367:7380   */\n      lt\n        /* \"#utility.yul\":7359:7472   */\n      iszero\n      tag_193\n      jumpi\n        /* \"#utility.yul\":7458:7459   */\n      dup1\n        /* \"#utility.yul\":7453:7456   */\n      dup3\n        /* \"#utility.yul\":7449:7460   */\n      add\n        /* \"#utility.yul\":7443:7461   */\n      mload\n        /* \"#utility.yul\":7439:7440   */\n      dup2\n        /* \"#utility.yul\":7434:7437   */\n      dup5\n        /* \"#utility.yul\":7430:7441   */\n      add\n        /* \"#utility.yul\":7423:7462   */\n      mstore\n        /* \"#utility.yul\":7395:7397   */\n      0x20\n        /* \"#utility.yul\":7392:7393   */\n      dup2\n        /* \"#utility.yul\":7388:7398   */\n      add\n        /* \"#utility.yul\":7383:7398   */\n      swap1\n      pop\n        /* \"#utility.yul\":7359:7472   */\n      jump(tag_191)\n    tag_193:\n        /* \"#utility.yul\":7490:7496   */\n      dup4\n        /* \"#utility.yul\":7487:7488   */\n      dup2\n        /* \"#utility.yul\":7484:7497   */\n      gt\n        /* \"#utility.yul\":7481:7582   */\n      iszero\n      tag_194\n      jumpi\n        /* \"#utility.yul\":7570:7571   */\n      0x00\n        /* \"#utility.yul\":7561:7567   */\n      dup5\n        /* \"#utility.yul\":7556:7559   */\n      dup5\n        /* \"#utility.yul\":7552:7568   */\n      add\n        /* \"#utility.yul\":7545:7572   */\n      mstore\n        /* \"#utility.yul\":7481:7582   */\n    tag_194:\n        /* \"#utility.yul\":7330:7588   */\n      pop\n        /* \"#utility.yul\":7281:7588   */\n      pop\n      pop\n      pop\n      jump\t// out\n        /* \"#utility.yul\":7594:7914   */\n    tag_71:\n        /* \"#utility.yul\":7638:7644   */\n      0x00\n        /* \"#utility.yul\":7675:7676   */\n      0x02\n        /* \"#utility.yul\":7669:7673   */\n      dup3\n        /* \"#utility.yul\":7665:7677   */\n      div\n        /* \"#utility.yul\":7655:7677   */\n      swap1\n      pop\n        /* \"#utility.yul\":7722:7723   */\n      0x01\n        /* \"#utility.yul\":7716:7720   */\n      dup3\n        /* \"#utility.yul\":7712:7724   */\n      and\n        /* \"#utility.yul\":7743:7761   */\n      dup1\n        /* \"#utility.yul\":7733:7814   */\n      tag_196\n      jumpi\n        /* \"#utility.yul\":7799:7803   */\n      0x7f\n        /* \"#utility.yul\":7791:7797   */\n      dup3\n        /* \"#utility.yul\":7787:7804   */\n      and\n        /* \"#utility.yul\":7777:7804   */\n      swap2\n      pop\n        /* \"#utility.yul\":7733:7814   */\n    tag_196:\n        /* \"#utility.yul\":7861:7863   */\n      0x20\n        /* \"#utility.yul\":7853:7859   */\n      dup3\n        /* \"#utility.yul\":7850:7864   */\n      lt\n        /* \"#utility.yul\":7830:7848   */\n      dup2\n        /* \"#utility.yul\":7827:7865   */\n      eq\n        /* \"#utility.yul\":7824:7908   */\n      iszero\n      tag_197\n      jumpi\n        /* \"#utility.yul\":7880:7898   */\n      tag_198\n      tag_199\n      jump\t// in\n    tag_198:\n        /* \"#utility.yul\":7824:7908   */\n    tag_197:\n        /* \"#utility.yul\":7645:7914   */\n      pop\n        /* \"#utility.yul\":7594:7914   */\n      swap2\n      swap1\n      pop\n      jump\t// out\n        /* \"#utility.yul\":7920:8091   */\n    tag_52:\n        /* \"#utility.yul\":7958:7961   */\n      0x00\n        /* \"#utility.yul\":7981:8004   */\n      tag_201\n        /* \"#utility.yul\":7998:8003   */\n      dup3\n        /* \"#utility.yul\":7981:8004   */\n      tag_149\n      jump\t// in\n    tag_201:\n        /* \"#utility.yul\":7972:8004   */\n      swap2\n      pop\n        /* \"#utility.yul\":8026:8032   */\n      0xffff\n        /* \"#utility.yul\":8019:8024   */\n      dup3\n        /* \"#utility.yul\":8016:8033   */\n      eq\n        /* \"#utility.yul\":8013:8056   */\n      iszero\n      tag_202\n      jumpi\n        /* \"#utility.yul\":8036:8054   */\n      tag_203\n      tag_204\n      jump\t// in\n    tag_203:\n        /* \"#utility.yul\":8013:8056   */\n    tag_202:\n        /* \"#utility.yul\":8083:8084   */\n      0x01\n        /* \"#utility.yul\":8076:8081   */\n      dup3\n        /* \"#utility.yul\":8072:8085   */\n      add\n        /* \"#utility.yul\":8065:8085   */\n      swap1\n      pop\n        /* \"#utility.yul\":7920:8091   */\n      swap2\n      swap1\n      pop\n      jump\t// out\n        /* \"#utility.yul\":8097:8277   */\n    tag_204:\n        /* \"#utility.yul\":8145:8222   */\n      0x4e487b7100000000000000000000000000000000000000000000000000000000\n        /* \"#utility.yul\":8142:8143   */\n      0x00\n        /* \"#utility.yul\":8135:8223   */\n      mstore\n        /* \"#utility.yul\":8242:8246   */\n      0x11\n        /* \"#utility.yul\":8239:8240   */\n      0x04\n        /* \"#utility.yul\":8232:8247   */\n      mstore\n        /* \"#utility.yul\":8266:8270   */\n      0x24\n        /* \"#utility.yul\":8263:8264   */\n      0x00\n        /* \"#utility.yul\":8256:8271   */\n      revert\n        /* \"#utility.yul\":8283:8463   */\n    tag_35:\n        /* \"#utility.yul\":8331:8408   */\n      0x4e487b7100000000000000000000000000000000000000000000000000000000\n        /* \"#utility.yul\":8328:8329   */\n      0x00\n        /* \"#utility.yul\":8321:8409   */\n      mstore\n        /* \"#utility.yul\":8428:8432   */\n      0x21\n        /* \"#utility.yul\":8425:8426   */\n      0x04\n        /* \"#utility.yul\":8418:8433   */\n      mstore\n        /* \"#utility.yul\":8452:8456   */\n      0x24\n        /* \"#utility.yul\":8449:8450   */\n      0x00\n        /* \"#utility.yul\":8442:8457   */\n      revert\n        /* \"#utility.yul\":8469:8649   */\n    tag_199:\n        /* \"#utility.yul\":8517:8594   */\n      0x4e487b7100000000000000000000000000000000000000000000000000000000\n        /* \"#utility.yul\":8514:8515   */\n      0x00\n        /* \"#utility.yul\":8507:8595   */\n      mstore\n        /* \"#utility.yul\":8614:8618   */\n      0x22\n        /* \"#utility.yul\":8611:8612   */\n      0x04\n        /* \"#utility.yul\":8604:8619   */\n      mstore\n        /* \"#utility.yul\":8638:8642   */\n      0x24\n        /* \"#utility.yul\":8635:8636   */\n      0x00\n        /* \"#utility.yul\":8628:8643   */\n      revert\n        /* \"#utility.yul\":8655:8772   */\n    tag_94:\n        /* \"#utility.yul\":8764:8765   */\n      0x00\n        /* \"#utility.yul\":8761:8762   */\n      dup1\n        /* \"#utility.yul\":8754:8766   */\n      revert\n        /* \"#utility.yul\":8778:8895   */\n    tag_91:\n        /* \"#utility.yul\":8887:8888   */\n      0x00\n        /* \"#utility.yul\":8884:8885   */\n      dup1\n        /* \"#utility.yul\":8877:8889   */\n      revert\n        /* \"#utility.yul\":8901:9018   */\n    tag_97:\n        /* \"#utility.yul\":9010:9011   */\n      0x00\n        /* \"#utility.yul\":9007:9008   */\n      dup1\n        /* \"#utility.yul\":9000:9012   */\n      revert\n        /* \"#utility.yul\":9024:9141   */\n    tag_108:\n        /* \"#utility.yul\":9133:9134   */\n      0x00\n        /* \"#utility.yul\":9130:9131   */\n      dup1\n        /* \"#utility.yul\":9123:9135   */\n      revert\n        /* \"#utility.yul\":9147:9264   */\n    tag_105:\n        /* \"#utility.yul\":9256:9257   */\n      0x00\n        /* \"#utility.yul\":9253:9254   */\n      dup1\n        /* \"#utility.yul\":9246:9258   */\n      revert\n        /* \"#utility.yul\":9270:9372   */\n    tag_135:\n        /* \"#utility.yul\":9311:9317   */\n      0x00\n        /* \"#utility.yul\":9362:9364   */\n      0x1f\n        /* \"#utility.yul\":9358:9365   */\n      not\n        /* \"#utility.yul\":9353:9355   */\n      0x1f\n        /* \"#utility.yul\":9346:9351   */\n      dup4\n        /* \"#utility.yul\":9342:9356   */\n      add\n        /* \"#utility.yul\":9338:9366   */\n      and\n        /* \"#utility.yul\":9328:9366   */\n      swap1\n      pop\n        /* \"#utility.yul\":9270:9372   */\n      swap2\n      swap1\n      pop\n      jump\t// out\n        /* \"#utility.yul\":9378:9618   */\n    tag_140:\n        /* \"#utility.yul\":9518:9552   */\n      0x41647669736f727320676976696e6720616476696365206e65656420746f2073\n        /* \"#utility.yul\":9514:9515   */\n      0x00\n        /* \"#utility.yul\":9506:9512   */\n      dup3\n        /* \"#utility.yul\":9502:9516   */\n      add\n        /* \"#utility.yul\":9495:9553   */\n      mstore\n        /* \"#utility.yul\":9587:9610   */\n      0x74616b65206174206c6561737420312065746865720000000000000000000000\n        /* \"#utility.yul\":9582:9584   */\n      0x20\n        /* \"#utility.yul\":9574:9580   */\n      dup3\n        /* \"#utility.yul\":9570:9585   */\n      add\n        /* \"#utility.yul\":9563:9611   */\n      mstore\n        /* \"#utility.yul\":9378:9618   */\n      pop\n      jump\t// out\n        /* \"#utility.yul\":9624:9845   */\n    tag_145:\n        /* \"#utility.yul\":9764:9798   */\n      0x496e766573746d656e742061647669636520616c726561647920726563656976\n        /* \"#utility.yul\":9760:9761   */\n      0x00\n        /* \"#utility.yul\":9752:9758   */\n      dup3\n        /* \"#utility.yul\":9748:9762   */\n      add\n        /* \"#utility.yul\":9741:9799   */\n      mstore\n        /* \"#utility.yul\":9833:9837   */\n      0x6564000000000000000000000000000000000000000000000000000000000000\n        /* \"#utility.yul\":9828:9830   */\n      0x20\n        /* \"#utility.yul\":9820:9826   */\n      dup3\n        /* \"#utility.yul\":9816:9831   */\n      add\n        /* \"#utility.yul\":9809:9838   */\n      mstore\n        /* \"#utility.yul\":9624:9845   */\n      pop\n      jump\t// out\n        /* \"#utility.yul\":9851:9988   */\n    tag_184:\n        /* \"#utility.yul\":9956:9957   */\n      0x04\n        /* \"#utility.yul\":9949:9954   */\n      dup2\n        /* \"#utility.yul\":9946:9958   */\n      lt\n        /* \"#utility.yul\":9936:9982   */\n      tag_217\n      jumpi\n        /* \"#utility.yul\":9962:9980   */\n      tag_218\n      tag_35\n      jump\t// in\n    tag_218:\n        /* \"#utility.yul\":9936:9982   */\n    tag_217:\n        /* \"#utility.yul\":9851:9988   */\n      pop\n      jump\t// out\n        /* \"#utility.yul\":9994:10114   */\n    tag_101:\n        /* \"#utility.yul\":10066:10089   */\n      tag_220\n        /* \"#utility.yul\":10083:10088   */\n      dup2\n        /* \"#utility.yul\":10066:10089   */\n      tag_149\n      jump\t// in\n    tag_220:\n        /* \"#utility.yul\":10059:10064   */\n      dup2\n        /* \"#utility.yul\":10056:10090   */\n      eq\n        /* \"#utility.yul\":10046:10108   */\n      tag_221\n      jumpi\n        /* \"#utility.yul\":10104:10105   */\n      0x00\n        /* \"#utility.yul\":10101:10102   */\n      dup1\n        /* \"#utility.yul\":10094:10106   */\n      revert\n        /* \"#utility.yul\":10046:10108   */\n    tag_221:\n        /* \"#utility.yul\":9994:10114   */\n      pop\n      jump\t// out\n\n    auxdata: 0xa264697066735822122078d7f18395881b412ead94799db5794c40d511e6184f26647703241cdc4156f964736f6c63430008070033\n}\n",
				"bytecode": {
					"linkReferences": {},
					"object": "608060405247600055604051620014023803806200140283398181016040528101906200002d91906200020a565b600134101562000074576040517f08c379a00000000000000000000000000000000000000000000000000000000081526004016200006b90620003c3565b60405180910390fd5b6000339050600034905060006040518060e001604052808473ffffffffffffffffffffffffffffffffffffffff1681526020018381526020018781526020018681526020018581526020018261ffff16815260200160006003811115620000e057620000df62000545565b5b815250600160008201518160000160006101000a81548173ffffffffffffffffffffffffffffffffffffffff021916908373ffffffffffffffffffffffffffffffffffffffff1602179055506020820151816001015560408201518160020155606082015181600301556080820151816004015560a08201518160050160006101000a81548161ffff021916908361ffff16021790555060c08201518160050160026101000a81548160ff02191690836003811115620001a557620001a462000545565b5b02179055509050507f97db6c2a31a7d3d3782d21ec33136d32a899190e64b74f8abb4bf2e2d04b0f526001604051620001df9190620003e5565b60405180910390a150505050505062000613565b6000815190506200020481620005f9565b92915050565b60008060006060848603121562000226576200022562000574565b5b60006200023686828701620001f3565b93505060206200024986828701620001f3565b92505060406200025c86828701620001f3565b9150509250925092565b620002718162000458565b82525050565b6200028281620004b9565b82525050565b600062000297603a8362000402565b9150620002a48262000593565b604082019050919050565b60e082016000808301549050620002c681620004cd565b620002d5600086018262000266565b5060018301549050620002e88162000509565b620002f76020860182620003b2565b50600283015490506200030a8162000509565b620003196040860182620003b2565b50600383015490506200032c8162000509565b6200033b6060860182620003b2565b50600483015490506200034e8162000509565b6200035d6080860182620003b2565b50600583015490506200037081620004eb565b6200037f60a0860182620003a1565b506200038b8162000527565b6200039a60c086018262000277565b5050505050565b620003ac8162000481565b82525050565b620003bd81620004af565b82525050565b60006020820190508181036000830152620003de8162000288565b9050919050565b600060e082019050620003fc6000830184620002af565b92915050565b600082825260208201905092915050565b600073ffffffffffffffffffffffffffffffffffffffff82169050919050565b600060ff82169050919050565b600061ffff82169050919050565b6000819050919050565b600062000465826200048f565b9050919050565b60008190506200047c82620005e2565b919050565b600061ffff82169050919050565b600073ffffffffffffffffffffffffffffffffffffffff82169050919050565b6000819050919050565b6000620004c6826200046c565b9050919050565b6000620004e4620004de8362000579565b62000413565b9050919050565b600062000502620004fc8362000579565b62000440565b9050919050565b6000620005206200051a8362000579565b6200044e565b9050919050565b60006200053e620005388362000586565b62000433565b9050919050565b7f4e487b7100000000000000000000000000000000000000000000000000000000600052602160045260246000fd5b600080fd5b60008160001c9050919050565b60008160101c9050919050565b7f496e766573746f722072657175657374696e6720616476696365206e6565647360008201527f20746f207374616b65206174206c656173742031206574686572000000000000602082015250565b60048110620005f657620005f562000545565b5b50565b6200060481620004af565b81146200061057600080fd5b50565b610ddf80620006236000396000f3fe60806040526004361061004a5760003560e01c80631af76cc01461004f5780632d797b7a1461006b5780637ee4b26a14610094578063a46e0957146100c5578063f68e95a2146100f0575b600080fd5b610069600480360381019061006491906108a8565b610130565b005b34801561007757600080fd5b50610092600480360381019061008d91906108f5565b6103d3565b005b3480156100a057600080fd5b506100a9610604565b6040516100bc9796959493929190610a38565b60405180910390f35b3480156100d157600080fd5b506100da61066f565b6040516100e79190610ae7565b60405180910390f35b3480156100fc57600080fd5b50610117600480360381019061011291906108f5565b610675565b60405161012794939291906109ec565b60405180910390f35b6002600381111561014457610143610c58565b5b600160050160029054906101000a900460ff16600381111561016957610168610c58565b5b14156101aa576040517f08c379a00000000000000000000000000000000000000000000000000000000081526004016101a190610ac7565b60405180910390fd5b6000339050600034905060018110156101f8576040517f08c379a00000000000000000000000000000000000000000000000000000000081526004016101ef90610aa7565b60405180910390fd5b61020061075a565b60405180608001604052808473ffffffffffffffffffffffffffffffffffffffff16815260200183815260200186868080601f016020809104026020016040519081016040528093929190818152602001838380828437600081840152601f19601f8201169050808301925050505050505081526020016000151581525090508060076000600160050160009054906101000a900461ffff1661ffff1661ffff16815260200190815260200160002060008201518160000160006101000a81548173ffffffffffffffffffffffffffffffffffffffff021916908373ffffffffffffffffffffffffffffffffffffffff16021790555060208201518160010155604082015181600201908051906020019061031c92919061079a565b5060608201518160030160006101000a81548160ff0219169083151502179055509050506000600160050160009054906101000a900461ffff1661ffff16141561038e5760018060050160026101000a81548160ff0219169083600381111561038857610387610c58565b5b02179055505b6001600501600081819054906101000a900461ffff16809291906103b190610bfe565b91906101000a81548161ffff021916908361ffff160217905550505050505050565b600160038111156103e7576103e6610c58565b5b600160050160029054906101000a900460ff16600381111561040c5761040b610c58565b5b1461044c576040517f08c379a000000000000000000000000000000000000000000000000000000000815260040161044390610ac7565b60405180910390fd5b60005b600160050160009054906101000a900461ffff1661ffff168161ffff1611610600578161ffff168161ffff1614156104eb576001600760008461ffff1661ffff16815260200190815260200160002060030160006101000a81548160ff0219169083151502179055506002600160050160026101000a81548160ff021916908360038111156104e1576104e0610c58565b5b02179055506105ed565b6000600760008361ffff1661ffff1681526020019081526020016000206001015490506000600760008461ffff1661ffff16815260200190815260200160002060010181905550600760008361ffff1661ffff16815260200190815260200160002060000160009054906101000a900473ffffffffffffffffffffffffffffffffffffffff1673ffffffffffffffffffffffffffffffffffffffff166108fc600760008561ffff1661ffff168152602001908152602001600020600101549081150290604051600060405180830381858888f193505050506105eb5780600760008461ffff1661ffff168152602001908152602001600020600101819055505b505b80806105f890610bfe565b91505061044f565b5050565b60018060000160009054906101000a900473ffffffffffffffffffffffffffffffffffffffff16908060010154908060020154908060030154908060040154908060050160009054906101000a900461ffff16908060050160029054906101000a900460ff16905087565b60005481565b60076020528060005260406000206000915090508060000160009054906101000a900473ffffffffffffffffffffffffffffffffffffffff16908060010154908060020180546106c490610bcc565b80601f01602080910402602001604051908101604052809291908181526020018280546106f090610bcc565b801561073d5780601f106107125761010080835404028352916020019161073d565b820191906000526020600020905b81548152906001019060200180831161072057829003601f168201915b5050505050908060030160009054906101000a900460ff16905084565b6040518060800160405280600073ffffffffffffffffffffffffffffffffffffffff16815260200160008152602001606081526020016000151581525090565b8280546107a690610bcc565b90600052602060002090601f0160209004810192826107c8576000855561080f565b82601f106107e157805160ff191683800117855561080f565b8280016001018555821561080f579182015b8281111561080e5782518255916020019190600101906107f3565b5b50905061081c9190610820565b5090565b5b80821115610839576000816000905550600101610821565b5090565b60008083601f84011261085357610852610cbb565b5b8235905067ffffffffffffffff8111156108705761086f610cb6565b5b60208301915083600182028301111561088c5761088b610cc0565b5b9250929050565b6000813590506108a281610d92565b92915050565b600080602083850312156108bf576108be610cca565b5b600083013567ffffffffffffffff8111156108dd576108dc610cc5565b5b6108e98582860161083d565b92509250509250929050565b60006020828403121561090b5761090a610cca565b5b600061091984828501610893565b91505092915050565b61092b81610b1e565b82525050565b61093a81610b30565b82525050565b61094981610b87565b82525050565b600061095a82610b02565b6109648185610b0d565b9350610974818560208601610b99565b61097d81610ccf565b840191505092915050565b6000610995603583610b0d565b91506109a082610ce0565b604082019050919050565b60006109b8602283610b0d565b91506109c382610d2f565b604082019050919050565b6109d781610b4f565b82525050565b6109e681610b7d565b82525050565b6000608082019050610a016000830187610922565b610a0e60208301866109dd565b8181036040830152610a20818561094f565b9050610a2f6060830184610931565b95945050505050565b600060e082019050610a4d600083018a610922565b610a5a60208301896109dd565b610a6760408301886109dd565b610a7460608301876109dd565b610a8160808301866109dd565b610a8e60a08301856109ce565b610a9b60c0830184610940565b98975050505050505050565b60006020820190508181036000830152610ac081610988565b9050919050565b60006020820190508181036000830152610ae0816109ab565b9050919050565b6000602082019050610afc60008301846109dd565b92915050565b600081519050919050565b600082825260208201905092915050565b6000610b2982610b5d565b9050919050565b60008115159050919050565b6000819050610b4a82610d7e565b919050565b600061ffff82169050919050565b600073ffffffffffffffffffffffffffffffffffffffff82169050919050565b6000819050919050565b6000610b9282610b3c565b9050919050565b60005b83811015610bb7578082015181840152602081019050610b9c565b83811115610bc6576000848401525b50505050565b60006002820490506001821680610be457607f821691505b60208210811415610bf857610bf7610c87565b5b50919050565b6000610c0982610b4f565b915061ffff821415610c1e57610c1d610c29565b5b600182019050919050565b7f4e487b7100000000000000000000000000000000000000000000000000000000600052601160045260246000fd5b7f4e487b7100000000000000000000000000000000000000000000000000000000600052602160045260246000fd5b7f4e487b7100000000000000000000000000000000000000000000000000000000600052602260045260246000fd5b600080fd5b600080fd5b600080fd5b600080fd5b600080fd5b6000601f19601f8301169050919050565b7f41647669736f727320676976696e6720616476696365206e65656420746f207360008201527f74616b65206174206c6561737420312065746865720000000000000000000000602082015250565b7f496e766573746d656e742061647669636520616c72656164792072656365697660008201527f6564000000000000000000000000000000000000000000000000000000000000602082015250565b60048110610d8f57610d8e610c58565b5b50565b610d9b81610b4f565b8114610da657600080fd5b5056fea264697066735822122078d7f18395881b412ead94799db5794c40d511e6184f26647703241cdc4156f964736f6c63430008070033",
					"opcodes": "PUSH1 0x80 PUSH1 0x40 MSTORE SELFBALANCE PUSH1 0x0 SSTORE PUSH1 0x40 MLOAD PUSH3 0x1402 CODESIZE SUB DUP1 PUSH3 0x1402 DUP4 CODECOPY DUP2 DUP2 ADD PUSH1 0x40 MSTORE DUP2 ADD SWAP1 PUSH3 0x2D SWAP2 SWAP1 PUSH3 0x20A JUMP JUMPDEST PUSH1 0x1 CALLVALUE LT ISZERO PUSH3 0x74 JUMPI PUSH1 0x40 MLOAD PUSH32 0x8C379A000000000000000000000000000000000000000000000000000000000 DUP2 MSTORE PUSH1 0x4 ADD PUSH3 0x6B SWAP1 PUSH3 0x3C3 JUMP JUMPDEST PUSH1 0x40 MLOAD DUP1 SWAP2 SUB SWAP1 REVERT JUMPDEST PUSH1 0x0 CALLER SWAP1 POP PUSH1 0x0 CALLVALUE SWAP1 POP PUSH1 0x0 PUSH1 0x40 MLOAD DUP1 PUSH1 0xE0 ADD PUSH1 0x40 MSTORE DUP1 DUP5 PUSH20 0xFFFFFFFFFFFFFFFFFFFFFFFFFFFFFFFFFFFFFFFF AND DUP2 MSTORE PUSH1 0x20 ADD DUP4 DUP2 MSTORE PUSH1 0x20 ADD DUP8 DUP2 MSTORE PUSH1 0x20 ADD DUP7 DUP2 MSTORE PUSH1 0x20 ADD DUP6 DUP2 MSTORE PUSH1 0x20 ADD DUP3 PUSH2 0xFFFF AND DUP2 MSTORE PUSH1 0x20 ADD PUSH1 0x0 PUSH1 0x3 DUP2 GT ISZERO PUSH3 0xE0 JUMPI PUSH3 0xDF PUSH3 0x545 JUMP JUMPDEST JUMPDEST DUP2 MSTORE POP PUSH1 0x1 PUSH1 0x0 DUP3 ADD MLOAD DUP2 PUSH1 0x0 ADD PUSH1 0x0 PUSH2 0x100 EXP DUP2 SLOAD DUP2 PUSH20 0xFFFFFFFFFFFFFFFFFFFFFFFFFFFFFFFFFFFFFFFF MUL NOT AND SWAP1 DUP4 PUSH20 0xFFFFFFFFFFFFFFFFFFFFFFFFFFFFFFFFFFFFFFFF AND MUL OR SWAP1 SSTORE POP PUSH1 0x20 DUP3 ADD MLOAD DUP2 PUSH1 0x1 ADD SSTORE PUSH1 0x40 DUP3 ADD MLOAD DUP2 PUSH1 0x2 ADD SSTORE PUSH1 0x60 DUP3 ADD MLOAD DUP2 PUSH1 0x3 ADD SSTORE PUSH1 0x80 DUP3 ADD MLOAD DUP2 PUSH1 0x4 ADD SSTORE PUSH1 0xA0 DUP3 ADD MLOAD DUP2 PUSH1 0x5 ADD PUSH1 0x0 PUSH2 0x100 EXP DUP2 SLOAD DUP2 PUSH2 0xFFFF MUL NOT AND SWAP1 DUP4 PUSH2 0xFFFF AND MUL OR SWAP1 SSTORE POP PUSH1 0xC0 DUP3 ADD MLOAD DUP2 PUSH1 0x5 ADD PUSH1 0x2 PUSH2 0x100 EXP DUP2 SLOAD DUP2 PUSH1 0xFF MUL NOT AND SWAP1 DUP4 PUSH1 0x3 DUP2 GT ISZERO PUSH3 0x1A5 JUMPI PUSH3 0x1A4 PUSH3 0x545 JUMP JUMPDEST JUMPDEST MUL OR SWAP1 SSTORE POP SWAP1 POP POP PUSH32 0x97DB6C2A31A7D3D3782D21EC33136D32A899190E64B74F8ABB4BF2E2D04B0F52 PUSH1 0x1 PUSH1 0x40 MLOAD PUSH3 0x1DF SWAP2 SWAP1 PUSH3 0x3E5 JUMP JUMPDEST PUSH1 0x40 MLOAD DUP1 SWAP2 SUB SWAP1 LOG1 POP POP POP POP POP POP PUSH3 0x613 JUMP JUMPDEST PUSH1 0x0 DUP2 MLOAD SWAP1 POP PUSH3 0x204 DUP2 PUSH3 0x5F9 JUMP JUMPDEST SWAP3 SWAP2 POP POP JUMP JUMPDEST PUSH1 0x0 DUP1 PUSH1 0x0 PUSH1 0x60 DUP5 DUP7 SUB SLT ISZERO PUSH3 0x226 JUMPI PUSH3 0x225 PUSH3 0x574 JUMP JUMPDEST JUMPDEST PUSH1 0x0 PUSH3 0x236 DUP7 DUP3 DUP8 ADD PUSH3 0x1F3 JUMP JUMPDEST SWAP4 POP POP PUSH1 0x20 PUSH3 0x249 DUP7 DUP3 DUP8 ADD PUSH3 0x1F3 JUMP JUMPDEST SWAP3 POP POP PUSH1 0x40 PUSH3 0x25C DUP7 DUP3 DUP8 ADD PUSH3 0x1F3 JUMP JUMPDEST SWAP2 POP POP SWAP3 POP SWAP3 POP SWAP3 JUMP JUMPDEST PUSH3 0x271 DUP2 PUSH3 0x458 JUMP JUMPDEST DUP3 MSTORE POP POP JUMP JUMPDEST PUSH3 0x282 DUP2 PUSH3 0x4B9 JUMP JUMPDEST DUP3 MSTORE POP POP JUMP JUMPDEST PUSH1 0x0 PUSH3 0x297 PUSH1 0x3A DUP4 PUSH3 0x402 JUMP JUMPDEST SWAP2 POP PUSH3 0x2A4 DUP3 PUSH3 0x593 JUMP JUMPDEST PUSH1 0x40 DUP3 ADD SWAP1 POP SWAP2 SWAP1 POP JUMP JUMPDEST PUSH1 0xE0 DUP3 ADD PUSH1 0x0 DUP1 DUP4 ADD SLOAD SWAP1 POP PUSH3 0x2C6 DUP2 PUSH3 0x4CD JUMP JUMPDEST PUSH3 0x2D5 PUSH1 0x0 DUP7 ADD DUP3 PUSH3 0x266 JUMP JUMPDEST POP PUSH1 0x1 DUP4 ADD SLOAD SWAP1 POP PUSH3 0x2E8 DUP2 PUSH3 0x509 JUMP JUMPDEST PUSH3 0x2F7 PUSH1 0x20 DUP7 ADD DUP3 PUSH3 0x3B2 JUMP JUMPDEST POP PUSH1 0x2 DUP4 ADD SLOAD SWAP1 POP PUSH3 0x30A DUP2 PUSH3 0x509 JUMP JUMPDEST PUSH3 0x319 PUSH1 0x40 DUP7 ADD DUP3 PUSH3 0x3B2 JUMP JUMPDEST POP PUSH1 0x3 DUP4 ADD SLOAD SWAP1 POP PUSH3 0x32C DUP2 PUSH3 0x509 JUMP JUMPDEST PUSH3 0x33B PUSH1 0x60 DUP7 ADD DUP3 PUSH3 0x3B2 JUMP JUMPDEST POP PUSH1 0x4 DUP4 ADD SLOAD SWAP1 POP PUSH3 0x34E DUP2 PUSH3 0x509 JUMP JUMPDEST PUSH3 0x35D PUSH1 0x80 DUP7 ADD DUP3 PUSH3 0x3B2 JUMP JUMPDEST POP PUSH1 0x5 DUP4 ADD SLOAD SWAP1 POP PUSH3 0x370 DUP2 PUSH3 0x4EB JUMP JUMPDEST PUSH3 0x37F PUSH1 0xA0 DUP7 ADD DUP3 PUSH3 0x3A1 JUMP JUMPDEST POP PUSH3 0x38B DUP2 PUSH3 0x527 JUMP JUMPDEST PUSH3 0x39A PUSH1 0xC0 DUP7 ADD DUP3 PUSH3 0x277 JUMP JUMPDEST POP POP POP POP POP JUMP JUMPDEST PUSH3 0x3AC DUP2 PUSH3 0x481 JUMP JUMPDEST DUP3 MSTORE POP POP JUMP JUMPDEST PUSH3 0x3BD DUP2 PUSH3 0x4AF JUMP JUMPDEST DUP3 MSTORE POP POP JUMP JUMPDEST PUSH1 0x0 PUSH1 0x20 DUP3 ADD SWAP1 POP DUP2 DUP2 SUB PUSH1 0x0 DUP4 ADD MSTORE PUSH3 0x3DE DUP2 PUSH3 0x288 JUMP JUMPDEST SWAP1 POP SWAP2 SWAP1 POP JUMP JUMPDEST PUSH1 0x0 PUSH1 0xE0 DUP3 ADD SWAP1 POP PUSH3 0x3FC PUSH1 0x0 DUP4 ADD DUP5 PUSH3 0x2AF JUMP JUMPDEST SWAP3 SWAP2 POP POP JUMP JUMPDEST PUSH1 0x0 DUP3 DUP3 MSTORE PUSH1 0x20 DUP3 ADD SWAP1 POP SWAP3 SWAP2 POP POP JUMP JUMPDEST PUSH1 0x0 PUSH20 0xFFFFFFFFFFFFFFFFFFFFFFFFFFFFFFFFFFFFFFFF DUP3 AND SWAP1 POP SWAP2 SWAP1 POP JUMP JUMPDEST PUSH1 0x0 PUSH1 0xFF DUP3 AND SWAP1 POP SWAP2 SWAP1 POP JUMP JUMPDEST PUSH1 0x0 PUSH2 0xFFFF DUP3 AND SWAP1 POP SWAP2 SWAP1 POP JUMP JUMPDEST PUSH1 0x0 DUP2 SWAP1 POP SWAP2 SWAP1 POP JUMP JUMPDEST PUSH1 0x0 PUSH3 0x465 DUP3 PUSH3 0x48F JUMP JUMPDEST SWAP1 POP SWAP2 SWAP1 POP JUMP JUMPDEST PUSH1 0x0 DUP2 SWAP1 POP PUSH3 0x47C DUP3 PUSH3 0x5E2 JUMP JUMPDEST SWAP2 SWAP1 POP JUMP JUMPDEST PUSH1 0x0 PUSH2 0xFFFF DUP3 AND SWAP1 POP SWAP2 SWAP1 POP JUMP JUMPDEST PUSH1 0x0 PUSH20 0xFFFFFFFFFFFFFFFFFFFFFFFFFFFFFFFFFFFFFFFF DUP3 AND SWAP1 POP SWAP2 SWAP1 POP JUMP JUMPDEST PUSH1 0x0 DUP2 SWAP1 POP SWAP2 SWAP1 POP JUMP JUMPDEST PUSH1 0x0 PUSH3 0x4C6 DUP3 PUSH3 0x46C JUMP JUMPDEST SWAP1 POP SWAP2 SWAP1 POP JUMP JUMPDEST PUSH1 0x0 PUSH3 0x4E4 PUSH3 0x4DE DUP4 PUSH3 0x579 JUMP JUMPDEST PUSH3 0x413 JUMP JUMPDEST SWAP1 POP SWAP2 SWAP1 POP JUMP JUMPDEST PUSH1 0x0 PUSH3 0x502 PUSH3 0x4FC DUP4 PUSH3 0x579 JUMP JUMPDEST PUSH3 0x440 JUMP JUMPDEST SWAP1 POP SWAP2 SWAP1 POP JUMP JUMPDEST PUSH1 0x0 PUSH3 0x520 PUSH3 0x51A DUP4 PUSH3 0x579 JUMP JUMPDEST PUSH3 0x44E JUMP JUMPDEST SWAP1 POP SWAP2 SWAP1 POP JUMP JUMPDEST PUSH1 0x0 PUSH3 0x53E PUSH3 0x538 DUP4 PUSH3 0x586 JUMP JUMPDEST PUSH3 0x433 JUMP JUMPDEST SWAP1 POP SWAP2 SWAP1 POP JUMP JUMPDEST PUSH32 0x4E487B7100000000000000000000000000000000000000000000000000000000 PUSH1 0x0 MSTORE PUSH1 0x21 PUSH1 0x4 MSTORE PUSH1 0x24 PUSH1 0x0 REVERT JUMPDEST PUSH1 0x0 DUP1 REVERT JUMPDEST PUSH1 0x0 DUP2 PUSH1 0x0 SHR SWAP1 POP SWAP2 SWAP1 POP JUMP JUMPDEST PUSH1 0x0 DUP2 PUSH1 0x10 SHR SWAP1 POP SWAP2 SWAP1 POP JUMP JUMPDEST PUSH32 0x496E766573746F722072657175657374696E6720616476696365206E65656473 PUSH1 0x0 DUP3 ADD MSTORE PUSH32 0x20746F207374616B65206174206C656173742031206574686572000000000000 PUSH1 0x20 DUP3 ADD MSTORE POP JUMP JUMPDEST PUSH1 0x4 DUP2 LT PUSH3 0x5F6 JUMPI PUSH3 0x5F5 PUSH3 0x545 JUMP JUMPDEST JUMPDEST POP JUMP JUMPDEST PUSH3 0x604 DUP2 PUSH3 0x4AF JUMP JUMPDEST DUP2 EQ PUSH3 0x610 JUMPI PUSH1 0x0 DUP1 REVERT JUMPDEST POP JUMP JUMPDEST PUSH2 0xDDF DUP1 PUSH3 0x623 PUSH1 0x0 CODECOPY PUSH1 0x0 RETURN INVALID PUSH1 0x80 PUSH1 0x40 MSTORE PUSH1 0x4 CALLDATASIZE LT PUSH2 0x4A JUMPI PUSH1 0x0 CALLDATALOAD PUSH1 0xE0 SHR DUP1 PUSH4 0x1AF76CC0 EQ PUSH2 0x4F JUMPI DUP1 PUSH4 0x2D797B7A EQ PUSH2 0x6B JUMPI DUP1 PUSH4 0x7EE4B26A EQ PUSH2 0x94 JUMPI DUP1 PUSH4 0xA46E0957 EQ PUSH2 0xC5 JUMPI DUP1 PUSH4 0xF68E95A2 EQ PUSH2 0xF0 JUMPI JUMPDEST PUSH1 0x0 DUP1 REVERT JUMPDEST PUSH2 0x69 PUSH1 0x4 DUP1 CALLDATASIZE SUB DUP2 ADD SWAP1 PUSH2 0x64 SWAP2 SWAP1 PUSH2 0x8A8 JUMP JUMPDEST PUSH2 0x130 JUMP JUMPDEST STOP JUMPDEST CALLVALUE DUP1 ISZERO PUSH2 0x77 JUMPI PUSH1 0x0 DUP1 REVERT JUMPDEST POP PUSH2 0x92 PUSH1 0x4 DUP1 CALLDATASIZE SUB DUP2 ADD SWAP1 PUSH2 0x8D SWAP2 SWAP1 PUSH2 0x8F5 JUMP JUMPDEST PUSH2 0x3D3 JUMP JUMPDEST STOP JUMPDEST CALLVALUE DUP1 ISZERO PUSH2 0xA0 JUMPI PUSH1 0x0 DUP1 REVERT JUMPDEST POP PUSH2 0xA9 PUSH2 0x604 JUMP JUMPDEST PUSH1 0x40 MLOAD PUSH2 0xBC SWAP8 SWAP7 SWAP6 SWAP5 SWAP4 SWAP3 SWAP2 SWAP1 PUSH2 0xA38 JUMP JUMPDEST PUSH1 0x40 MLOAD DUP1 SWAP2 SUB SWAP1 RETURN JUMPDEST CALLVALUE DUP1 ISZERO PUSH2 0xD1 JUMPI PUSH1 0x0 DUP1 REVERT JUMPDEST POP PUSH2 0xDA PUSH2 0x66F JUMP JUMPDEST PUSH1 0x40 MLOAD PUSH2 0xE7 SWAP2 SWAP1 PUSH2 0xAE7 JUMP JUMPDEST PUSH1 0x40 MLOAD DUP1 SWAP2 SUB SWAP1 RETURN JUMPDEST CALLVALUE DUP1 ISZERO PUSH2 0xFC JUMPI PUSH1 0x0 DUP1 REVERT JUMPDEST POP PUSH2 0x117 PUSH1 0x4 DUP1 CALLDATASIZE SUB DUP2 ADD SWAP1 PUSH2 0x112 SWAP2 SWAP1 PUSH2 0x8F5 JUMP JUMPDEST PUSH2 0x675 JUMP JUMPDEST PUSH1 0x40 MLOAD PUSH2 0x127 SWAP5 SWAP4 SWAP3 SWAP2 SWAP1 PUSH2 0x9EC JUMP JUMPDEST PUSH1 0x40 MLOAD DUP1 SWAP2 SUB SWAP1 RETURN JUMPDEST PUSH1 0x2 PUSH1 0x3 DUP2 GT ISZERO PUSH2 0x144 JUMPI PUSH2 0x143 PUSH2 0xC58 JUMP JUMPDEST JUMPDEST PUSH1 0x1 PUSH1 0x5 ADD PUSH1 0x2 SWAP1 SLOAD SWAP1 PUSH2 0x100 EXP SWAP1 DIV PUSH1 0xFF AND PUSH1 0x3 DUP2 GT ISZERO PUSH2 0x169 JUMPI PUSH2 0x168 PUSH2 0xC58 JUMP JUMPDEST JUMPDEST EQ ISZERO PUSH2 0x1AA JUMPI PUSH1 0x40 MLOAD PUSH32 0x8C379A000000000000000000000000000000000000000000000000000000000 DUP2 MSTORE PUSH1 0x4 ADD PUSH2 0x1A1 SWAP1 PUSH2 0xAC7 JUMP JUMPDEST PUSH1 0x40 MLOAD DUP1 SWAP2 SUB SWAP1 REVERT JUMPDEST PUSH1 0x0 CALLER SWAP1 POP PUSH1 0x0 CALLVALUE SWAP1 POP PUSH1 0x1 DUP2 LT ISZERO PUSH2 0x1F8 JUMPI PUSH1 0x40 MLOAD PUSH32 0x8C379A000000000000000000000000000000000000000000000000000000000 DUP2 MSTORE PUSH1 0x4 ADD PUSH2 0x1EF SWAP1 PUSH2 0xAA7 JUMP JUMPDEST PUSH1 0x40 MLOAD DUP1 SWAP2 SUB SWAP1 REVERT JUMPDEST PUSH2 0x200 PUSH2 0x75A JUMP JUMPDEST PUSH1 0x40 MLOAD DUP1 PUSH1 0x80 ADD PUSH1 0x40 MSTORE DUP1 DUP5 PUSH20 0xFFFFFFFFFFFFFFFFFFFFFFFFFFFFFFFFFFFFFFFF AND DUP2 MSTORE PUSH1 0x20 ADD DUP4 DUP2 MSTORE PUSH1 0x20 ADD DUP7 DUP7 DUP1 DUP1 PUSH1 0x1F ADD PUSH1 0x20 DUP1 SWAP2 DIV MUL PUSH1 0x20 ADD PUSH1 0x40 MLOAD SWAP1 DUP2 ADD PUSH1 0x40 MSTORE DUP1 SWAP4 SWAP3 SWAP2 SWAP1 DUP2 DUP2 MSTORE PUSH1 0x20 ADD DUP4 DUP4 DUP1 DUP3 DUP5 CALLDATACOPY PUSH1 0x0 DUP2 DUP5 ADD MSTORE PUSH1 0x1F NOT PUSH1 0x1F DUP3 ADD AND SWAP1 POP DUP1 DUP4 ADD SWAP3 POP POP POP POP POP POP POP DUP2 MSTORE PUSH1 0x20 ADD PUSH1 0x0 ISZERO ISZERO DUP2 MSTORE POP SWAP1 POP DUP1 PUSH1 0x7 PUSH1 0x0 PUSH1 0x1 PUSH1 0x5 ADD PUSH1 0x0 SWAP1 SLOAD SWAP1 PUSH2 0x100 EXP SWAP1 DIV PUSH2 0xFFFF AND PUSH2 0xFFFF AND PUSH2 0xFFFF AND DUP2 MSTORE PUSH1 0x20 ADD SWAP1 DUP2 MSTORE PUSH1 0x20 ADD PUSH1 0x0 KECCAK256 PUSH1 0x0 DUP3 ADD MLOAD DUP2 PUSH1 0x0 ADD PUSH1 0x0 PUSH2 0x100 EXP DUP2 SLOAD DUP2 PUSH20 0xFFFFFFFFFFFFFFFFFFFFFFFFFFFFFFFFFFFFFFFF MUL NOT AND SWAP1 DUP4 PUSH20 0xFFFFFFFFFFFFFFFFFFFFFFFFFFFFFFFFFFFFFFFF AND MUL OR SWAP1 SSTORE POP PUSH1 0x20 DUP3 ADD MLOAD DUP2 PUSH1 0x1 ADD SSTORE PUSH1 0x40 DUP3 ADD MLOAD DUP2 PUSH1 0x2 ADD SWAP1 DUP1 MLOAD SWAP1 PUSH1 0x20 ADD SWAP1 PUSH2 0x31C SWAP3 SWAP2 SWAP1 PUSH2 0x79A JUMP JUMPDEST POP PUSH1 0x60 DUP3 ADD MLOAD DUP2 PUSH1 0x3 ADD PUSH1 0x0 PUSH2 0x100 EXP DUP2 SLOAD DUP2 PUSH1 0xFF MUL NOT AND SWAP1 DUP4 ISZERO ISZERO MUL OR SWAP1 SSTORE POP SWAP1 POP POP PUSH1 0x0 PUSH1 0x1 PUSH1 0x5 ADD PUSH1 0x0 SWAP1 SLOAD SWAP1 PUSH2 0x100 EXP SWAP1 DIV PUSH2 0xFFFF AND PUSH2 0xFFFF AND EQ ISZERO PUSH2 0x38E JUMPI PUSH1 0x1 DUP1 PUSH1 0x5 ADD PUSH1 0x2 PUSH2 0x100 EXP DUP2 SLOAD DUP2 PUSH1 0xFF MUL NOT AND SWAP1 DUP4 PUSH1 0x3 DUP2 GT ISZERO PUSH2 0x388 JUMPI PUSH2 0x387 PUSH2 0xC58 JUMP JUMPDEST JUMPDEST MUL OR SWAP1 SSTORE POP JUMPDEST PUSH1 0x1 PUSH1 0x5 ADD PUSH1 0x0 DUP2 DUP2 SWAP1 SLOAD SWAP1 PUSH2 0x100 EXP SWAP1 DIV PUSH2 0xFFFF AND DUP1 SWAP3 SWAP2 SWAP1 PUSH2 0x3B1 SWAP1 PUSH2 0xBFE JUMP JUMPDEST SWAP2 SWAP1 PUSH2 0x100 EXP DUP2 SLOAD DUP2 PUSH2 0xFFFF MUL NOT AND SWAP1 DUP4 PUSH2 0xFFFF AND MUL OR SWAP1 SSTORE POP POP POP POP POP POP POP JUMP JUMPDEST PUSH1 0x1 PUSH1 0x3 DUP2 GT ISZERO PUSH2 0x3E7 JUMPI PUSH2 0x3E6 PUSH2 0xC58 JUMP JUMPDEST JUMPDEST PUSH1 0x1 PUSH1 0x5 ADD PUSH1 0x2 SWAP1 SLOAD SWAP1 PUSH2 0x100 EXP SWAP1 DIV PUSH1 0xFF AND PUSH1 0x3 DUP2 GT ISZERO PUSH2 0x40C JUMPI PUSH2 0x40B PUSH2 0xC58 JUMP JUMPDEST JUMPDEST EQ PUSH2 0x44C JUMPI PUSH1 0x40 MLOAD PUSH32 0x8C379A000000000000000000000000000000000000000000000000000000000 DUP2 MSTORE PUSH1 0x4 ADD PUSH2 0x443 SWAP1 PUSH2 0xAC7 JUMP JUMPDEST PUSH1 0x40 MLOAD DUP1 SWAP2 SUB SWAP1 REVERT JUMPDEST PUSH1 0x0 JUMPDEST PUSH1 0x1 PUSH1 0x5 ADD PUSH1 0x0 SWAP1 SLOAD SWAP1 PUSH2 0x100 EXP SWAP1 DIV PUSH2 0xFFFF AND PUSH2 0xFFFF AND DUP2 PUSH2 0xFFFF AND GT PUSH2 0x600 JUMPI DUP2 PUSH2 0xFFFF AND DUP2 PUSH2 0xFFFF AND EQ ISZERO PUSH2 0x4EB JUMPI PUSH1 0x1 PUSH1 0x7 PUSH1 0x0 DUP5 PUSH2 0xFFFF AND PUSH2 0xFFFF AND DUP2 MSTORE PUSH1 0x20 ADD SWAP1 DUP2 MSTORE PUSH1 0x20 ADD PUSH1 0x0 KECCAK256 PUSH1 0x3 ADD PUSH1 0x0 PUSH2 0x100 EXP DUP2 SLOAD DUP2 PUSH1 0xFF MUL NOT AND SWAP1 DUP4 ISZERO ISZERO MUL OR SWAP1 SSTORE POP PUSH1 0x2 PUSH1 0x1 PUSH1 0x5 ADD PUSH1 0x2 PUSH2 0x100 EXP DUP2 SLOAD DUP2 PUSH1 0xFF MUL NOT AND SWAP1 DUP4 PUSH1 0x3 DUP2 GT ISZERO PUSH2 0x4E1 JUMPI PUSH2 0x4E0 PUSH2 0xC58 JUMP JUMPDEST JUMPDEST MUL OR SWAP1 SSTORE POP PUSH2 0x5ED JUMP JUMPDEST PUSH1 0x0 PUSH1 0x7 PUSH1 0x0 DUP4 PUSH2 0xFFFF AND PUSH2 0xFFFF AND DUP2 MSTORE PUSH1 0x20 ADD SWAP1 DUP2 MSTORE PUSH1 0x20 ADD PUSH1 0x0 KECCAK256 PUSH1 0x1 ADD SLOAD SWAP1 POP PUSH1 0x0 PUSH1 0x7 PUSH1 0x0 DUP5 PUSH2 0xFFFF AND PUSH2 0xFFFF AND DUP2 MSTORE PUSH1 0x20 ADD SWAP1 DUP2 MSTORE PUSH1 0x20 ADD PUSH1 0x0 KECCAK256 PUSH1 0x1 ADD DUP2 SWAP1 SSTORE POP PUSH1 0x7 PUSH1 0x0 DUP4 PUSH2 0xFFFF AND PUSH2 0xFFFF AND DUP2 MSTORE PUSH1 0x20 ADD SWAP1 DUP2 MSTORE PUSH1 0x20 ADD PUSH1 0x0 KECCAK256 PUSH1 0x0 ADD PUSH1 0x0 SWAP1 SLOAD SWAP1 PUSH2 0x100 EXP SWAP1 DIV PUSH20 0xFFFFFFFFFFFFFFFFFFFFFFFFFFFFFFFFFFFFFFFF AND PUSH20 0xFFFFFFFFFFFFFFFFFFFFFFFFFFFFFFFFFFFFFFFF AND PUSH2 0x8FC PUSH1 0x7 PUSH1 0x0 DUP6 PUSH2 0xFFFF AND PUSH2 0xFFFF AND DUP2 MSTORE PUSH1 0x20 ADD SWAP1 DUP2 MSTORE PUSH1 0x20 ADD PUSH1 0x0 KECCAK256 PUSH1 0x1 ADD SLOAD SWAP1 DUP2 ISZERO MUL SWAP1 PUSH1 0x40 MLOAD PUSH1 0x0 PUSH1 0x40 MLOAD DUP1 DUP4 SUB DUP2 DUP6 DUP9 DUP9 CALL SWAP4 POP POP POP POP PUSH2 0x5EB JUMPI DUP1 PUSH1 0x7 PUSH1 0x0 DUP5 PUSH2 0xFFFF AND PUSH2 0xFFFF AND DUP2 MSTORE PUSH1 0x20 ADD SWAP1 DUP2 MSTORE PUSH1 0x20 ADD PUSH1 0x0 KECCAK256 PUSH1 0x1 ADD DUP2 SWAP1 SSTORE POP JUMPDEST POP JUMPDEST DUP1 DUP1 PUSH2 0x5F8 SWAP1 PUSH2 0xBFE JUMP JUMPDEST SWAP2 POP POP PUSH2 0x44F JUMP JUMPDEST POP POP JUMP JUMPDEST PUSH1 0x1 DUP1 PUSH1 0x0 ADD PUSH1 0x0 SWAP1 SLOAD SWAP1 PUSH2 0x100 EXP SWAP1 DIV PUSH20 0xFFFFFFFFFFFFFFFFFFFFFFFFFFFFFFFFFFFFFFFF AND SWAP1 DUP1 PUSH1 0x1 ADD SLOAD SWAP1 DUP1 PUSH1 0x2 ADD SLOAD SWAP1 DUP1 PUSH1 0x3 ADD SLOAD SWAP1 DUP1 PUSH1 0x4 ADD SLOAD SWAP1 DUP1 PUSH1 0x5 ADD PUSH1 0x0 SWAP1 SLOAD SWAP1 PUSH2 0x100 EXP SWAP1 DIV PUSH2 0xFFFF AND SWAP1 DUP1 PUSH1 0x5 ADD PUSH1 0x2 SWAP1 SLOAD SWAP1 PUSH2 0x100 EXP SWAP1 DIV PUSH1 0xFF AND SWAP1 POP DUP8 JUMP JUMPDEST PUSH1 0x0 SLOAD DUP2 JUMP JUMPDEST PUSH1 0x7 PUSH1 0x20 MSTORE DUP1 PUSH1 0x0 MSTORE PUSH1 0x40 PUSH1 0x0 KECCAK256 PUSH1 0x0 SWAP2 POP SWAP1 POP DUP1 PUSH1 0x0 ADD PUSH1 0x0 SWAP1 SLOAD SWAP1 PUSH2 0x100 EXP SWAP1 DIV PUSH20 0xFFFFFFFFFFFFFFFFFFFFFFFFFFFFFFFFFFFFFFFF AND SWAP1 DUP1 PUSH1 0x1 ADD SLOAD SWAP1 DUP1 PUSH1 0x2 ADD DUP1 SLOAD PUSH2 0x6C4 SWAP1 PUSH2 0xBCC JUMP JUMPDEST DUP1 PUSH1 0x1F ADD PUSH1 0x20 DUP1 SWAP2 DIV MUL PUSH1 0x20 ADD PUSH1 0x40 MLOAD SWAP1 DUP2 ADD PUSH1 0x40 MSTORE DUP1 SWAP3 SWAP2 SWAP1 DUP2 DUP2 MSTORE PUSH1 0x20 ADD DUP3 DUP1 SLOAD PUSH2 0x6F0 SWAP1 PUSH2 0xBCC JUMP JUMPDEST DUP1 ISZERO PUSH2 0x73D JUMPI DUP1 PUSH1 0x1F LT PUSH2 0x712 JUMPI PUSH2 0x100 DUP1 DUP4 SLOAD DIV MUL DUP4 MSTORE SWAP2 PUSH1 0x20 ADD SWAP2 PUSH2 0x73D JUMP JUMPDEST DUP3 ADD SWAP2 SWAP1 PUSH1 0x0 MSTORE PUSH1 0x20 PUSH1 0x0 KECCAK256 SWAP1 JUMPDEST DUP2 SLOAD DUP2 MSTORE SWAP1 PUSH1 0x1 ADD SWAP1 PUSH1 0x20 ADD DUP1 DUP4 GT PUSH2 0x720 JUMPI DUP3 SWAP1 SUB PUSH1 0x1F AND DUP3 ADD SWAP2 JUMPDEST POP POP POP POP POP SWAP1 DUP1 PUSH1 0x3 ADD PUSH1 0x0 SWAP1 SLOAD SWAP1 PUSH2 0x100 EXP SWAP1 DIV PUSH1 0xFF AND SWAP1 POP DUP5 JUMP JUMPDEST PUSH1 0x40 MLOAD DUP1 PUSH1 0x80 ADD PUSH1 0x40 MSTORE DUP1 PUSH1 0x0 PUSH20 0xFFFFFFFFFFFFFFFFFFFFFFFFFFFFFFFFFFFFFFFF AND DUP2 MSTORE PUSH1 0x20 ADD PUSH1 0x0 DUP2 MSTORE PUSH1 0x20 ADD PUSH1 0x60 DUP2 MSTORE PUSH1 0x20 ADD PUSH1 0x0 ISZERO ISZERO DUP2 MSTORE POP SWAP1 JUMP JUMPDEST DUP3 DUP1 SLOAD PUSH2 0x7A6 SWAP1 PUSH2 0xBCC JUMP JUMPDEST SWAP1 PUSH1 0x0 MSTORE PUSH1 0x20 PUSH1 0x0 KECCAK256 SWAP1 PUSH1 0x1F ADD PUSH1 0x20 SWAP1 DIV DUP2 ADD SWAP3 DUP3 PUSH2 0x7C8 JUMPI PUSH1 0x0 DUP6 SSTORE PUSH2 0x80F JUMP JUMPDEST DUP3 PUSH1 0x1F LT PUSH2 0x7E1 JUMPI DUP1 MLOAD PUSH1 0xFF NOT AND DUP4 DUP1 ADD OR DUP6 SSTORE PUSH2 0x80F JUMP JUMPDEST DUP3 DUP1 ADD PUSH1 0x1 ADD DUP6 SSTORE DUP3 ISZERO PUSH2 0x80F JUMPI SWAP2 DUP3 ADD JUMPDEST DUP3 DUP2 GT ISZERO PUSH2 0x80E JUMPI DUP3 MLOAD DUP3 SSTORE SWAP2 PUSH1 0x20 ADD SWAP2 SWAP1 PUSH1 0x1 ADD SWAP1 PUSH2 0x7F3 JUMP JUMPDEST JUMPDEST POP SWAP1 POP PUSH2 0x81C SWAP2 SWAP1 PUSH2 0x820 JUMP JUMPDEST POP SWAP1 JUMP JUMPDEST JUMPDEST DUP1 DUP3 GT ISZERO PUSH2 0x839 JUMPI PUSH1 0x0 DUP2 PUSH1 0x0 SWAP1 SSTORE POP PUSH1 0x1 ADD PUSH2 0x821 JUMP JUMPDEST POP SWAP1 JUMP JUMPDEST PUSH1 0x0 DUP1 DUP4 PUSH1 0x1F DUP5 ADD SLT PUSH2 0x853 JUMPI PUSH2 0x852 PUSH2 0xCBB JUMP JUMPDEST JUMPDEST DUP3 CALLDATALOAD SWAP1 POP PUSH8 0xFFFFFFFFFFFFFFFF DUP2 GT ISZERO PUSH2 0x870 JUMPI PUSH2 0x86F PUSH2 0xCB6 JUMP JUMPDEST JUMPDEST PUSH1 0x20 DUP4 ADD SWAP2 POP DUP4 PUSH1 0x1 DUP3 MUL DUP4 ADD GT ISZERO PUSH2 0x88C JUMPI PUSH2 0x88B PUSH2 0xCC0 JUMP JUMPDEST JUMPDEST SWAP3 POP SWAP3 SWAP1 POP JUMP JUMPDEST PUSH1 0x0 DUP2 CALLDATALOAD SWAP1 POP PUSH2 0x8A2 DUP2 PUSH2 0xD92 JUMP JUMPDEST SWAP3 SWAP2 POP POP JUMP JUMPDEST PUSH1 0x0 DUP1 PUSH1 0x20 DUP4 DUP6 SUB SLT ISZERO PUSH2 0x8BF JUMPI PUSH2 0x8BE PUSH2 0xCCA JUMP JUMPDEST JUMPDEST PUSH1 0x0 DUP4 ADD CALLDATALOAD PUSH8 0xFFFFFFFFFFFFFFFF DUP2 GT ISZERO PUSH2 0x8DD JUMPI PUSH2 0x8DC PUSH2 0xCC5 JUMP JUMPDEST JUMPDEST PUSH2 0x8E9 DUP6 DUP3 DUP7 ADD PUSH2 0x83D JUMP JUMPDEST SWAP3 POP SWAP3 POP POP SWAP3 POP SWAP3 SWAP1 POP JUMP JUMPDEST PUSH1 0x0 PUSH1 0x20 DUP3 DUP5 SUB SLT ISZERO PUSH2 0x90B JUMPI PUSH2 0x90A PUSH2 0xCCA JUMP JUMPDEST JUMPDEST PUSH1 0x0 PUSH2 0x919 DUP5 DUP3 DUP6 ADD PUSH2 0x893 JUMP JUMPDEST SWAP2 POP POP SWAP3 SWAP2 POP POP JUMP JUMPDEST PUSH2 0x92B DUP2 PUSH2 0xB1E JUMP JUMPDEST DUP3 MSTORE POP POP JUMP JUMPDEST PUSH2 0x93A DUP2 PUSH2 0xB30 JUMP JUMPDEST DUP3 MSTORE POP POP JUMP JUMPDEST PUSH2 0x949 DUP2 PUSH2 0xB87 JUMP JUMPDEST DUP3 MSTORE POP POP JUMP JUMPDEST PUSH1 0x0 PUSH2 0x95A DUP3 PUSH2 0xB02 JUMP JUMPDEST PUSH2 0x964 DUP2 DUP6 PUSH2 0xB0D JUMP JUMPDEST SWAP4 POP PUSH2 0x974 DUP2 DUP6 PUSH1 0x20 DUP7 ADD PUSH2 0xB99 JUMP JUMPDEST PUSH2 0x97D DUP2 PUSH2 0xCCF JUMP JUMPDEST DUP5 ADD SWAP2 POP POP SWAP3 SWAP2 POP POP JUMP JUMPDEST PUSH1 0x0 PUSH2 0x995 PUSH1 0x35 DUP4 PUSH2 0xB0D JUMP JUMPDEST SWAP2 POP PUSH2 0x9A0 DUP3 PUSH2 0xCE0 JUMP JUMPDEST PUSH1 0x40 DUP3 ADD SWAP1 POP SWAP2 SWAP1 POP JUMP JUMPDEST PUSH1 0x0 PUSH2 0x9B8 PUSH1 0x22 DUP4 PUSH2 0xB0D JUMP JUMPDEST SWAP2 POP PUSH2 0x9C3 DUP3 PUSH2 0xD2F JUMP JUMPDEST PUSH1 0x40 DUP3 ADD SWAP1 POP SWAP2 SWAP1 POP JUMP JUMPDEST PUSH2 0x9D7 DUP2 PUSH2 0xB4F JUMP JUMPDEST DUP3 MSTORE POP POP JUMP JUMPDEST PUSH2 0x9E6 DUP2 PUSH2 0xB7D JUMP JUMPDEST DUP3 MSTORE POP POP JUMP JUMPDEST PUSH1 0x0 PUSH1 0x80 DUP3 ADD SWAP1 POP PUSH2 0xA01 PUSH1 0x0 DUP4 ADD DUP8 PUSH2 0x922 JUMP JUMPDEST PUSH2 0xA0E PUSH1 0x20 DUP4 ADD DUP7 PUSH2 0x9DD JUMP JUMPDEST DUP2 DUP2 SUB PUSH1 0x40 DUP4 ADD MSTORE PUSH2 0xA20 DUP2 DUP6 PUSH2 0x94F JUMP JUMPDEST SWAP1 POP PUSH2 0xA2F PUSH1 0x60 DUP4 ADD DUP5 PUSH2 0x931 JUMP JUMPDEST SWAP6 SWAP5 POP POP POP POP POP JUMP JUMPDEST PUSH1 0x0 PUSH1 0xE0 DUP3 ADD SWAP1 POP PUSH2 0xA4D PUSH1 0x0 DUP4 ADD DUP11 PUSH2 0x922 JUMP JUMPDEST PUSH2 0xA5A PUSH1 0x20 DUP4 ADD DUP10 PUSH2 0x9DD JUMP JUMPDEST PUSH2 0xA67 PUSH1 0x40 DUP4 ADD DUP9 PUSH2 0x9DD JUMP JUMPDEST PUSH2 0xA74 PUSH1 0x60 DUP4 ADD DUP8 PUSH2 0x9DD JUMP JUMPDEST PUSH2 0xA81 PUSH1 0x80 DUP4 ADD DUP7 PUSH2 0x9DD JUMP JUMPDEST PUSH2 0xA8E PUSH1 0xA0 DUP4 ADD DUP6 PUSH2 0x9CE JUMP JUMPDEST PUSH2 0xA9B PUSH1 0xC0 DUP4 ADD DUP5 PUSH2 0x940 JUMP JUMPDEST SWAP9 SWAP8 POP POP POP POP POP POP POP POP JUMP JUMPDEST PUSH1 0x0 PUSH1 0x20 DUP3 ADD SWAP1 POP DUP2 DUP2 SUB PUSH1 0x0 DUP4 ADD MSTORE PUSH2 0xAC0 DUP2 PUSH2 0x988 JUMP JUMPDEST SWAP1 POP SWAP2 SWAP1 POP JUMP JUMPDEST PUSH1 0x0 PUSH1 0x20 DUP3 ADD SWAP1 POP DUP2 DUP2 SUB PUSH1 0x0 DUP4 ADD MSTORE PUSH2 0xAE0 DUP2 PUSH2 0x9AB JUMP JUMPDEST SWAP1 POP SWAP2 SWAP1 POP JUMP JUMPDEST PUSH1 0x0 PUSH1 0x20 DUP3 ADD SWAP1 POP PUSH2 0xAFC PUSH1 0x0 DUP4 ADD DUP5 PUSH2 0x9DD JUMP JUMPDEST SWAP3 SWAP2 POP POP JUMP JUMPDEST PUSH1 0x0 DUP2 MLOAD SWAP1 POP SWAP2 SWAP1 POP JUMP JUMPDEST PUSH1 0x0 DUP3 DUP3 MSTORE PUSH1 0x20 DUP3 ADD SWAP1 POP SWAP3 SWAP2 POP POP JUMP JUMPDEST PUSH1 0x0 PUSH2 0xB29 DUP3 PUSH2 0xB5D JUMP JUMPDEST SWAP1 POP SWAP2 SWAP1 POP JUMP JUMPDEST PUSH1 0x0 DUP2 ISZERO ISZERO SWAP1 POP SWAP2 SWAP1 POP JUMP JUMPDEST PUSH1 0x0 DUP2 SWAP1 POP PUSH2 0xB4A DUP3 PUSH2 0xD7E JUMP JUMPDEST SWAP2 SWAP1 POP JUMP JUMPDEST PUSH1 0x0 PUSH2 0xFFFF DUP3 AND SWAP1 POP SWAP2 SWAP1 POP JUMP JUMPDEST PUSH1 0x0 PUSH20 0xFFFFFFFFFFFFFFFFFFFFFFFFFFFFFFFFFFFFFFFF DUP3 AND SWAP1 POP SWAP2 SWAP1 POP JUMP JUMPDEST PUSH1 0x0 DUP2 SWAP1 POP SWAP2 SWAP1 POP JUMP JUMPDEST PUSH1 0x0 PUSH2 0xB92 DUP3 PUSH2 0xB3C JUMP JUMPDEST SWAP1 POP SWAP2 SWAP1 POP JUMP JUMPDEST PUSH1 0x0 JUMPDEST DUP4 DUP2 LT ISZERO PUSH2 0xBB7 JUMPI DUP1 DUP3 ADD MLOAD DUP2 DUP5 ADD MSTORE PUSH1 0x20 DUP2 ADD SWAP1 POP PUSH2 0xB9C JUMP JUMPDEST DUP4 DUP2 GT ISZERO PUSH2 0xBC6 JUMPI PUSH1 0x0 DUP5 DUP5 ADD MSTORE JUMPDEST POP POP POP POP JUMP JUMPDEST PUSH1 0x0 PUSH1 0x2 DUP3 DIV SWAP1 POP PUSH1 0x1 DUP3 AND DUP1 PUSH2 0xBE4 JUMPI PUSH1 0x7F DUP3 AND SWAP2 POP JUMPDEST PUSH1 0x20 DUP3 LT DUP2 EQ ISZERO PUSH2 0xBF8 JUMPI PUSH2 0xBF7 PUSH2 0xC87 JUMP JUMPDEST JUMPDEST POP SWAP2 SWAP1 POP JUMP JUMPDEST PUSH1 0x0 PUSH2 0xC09 DUP3 PUSH2 0xB4F JUMP JUMPDEST SWAP2 POP PUSH2 0xFFFF DUP3 EQ ISZERO PUSH2 0xC1E JUMPI PUSH2 0xC1D PUSH2 0xC29 JUMP JUMPDEST JUMPDEST PUSH1 0x1 DUP3 ADD SWAP1 POP SWAP2 SWAP1 POP JUMP JUMPDEST PUSH32 0x4E487B7100000000000000000000000000000000000000000000000000000000 PUSH1 0x0 MSTORE PUSH1 0x11 PUSH1 0x4 MSTORE PUSH1 0x24 PUSH1 0x0 REVERT JUMPDEST PUSH32 0x4E487B7100000000000000000000000000000000000000000000000000000000 PUSH1 0x0 MSTORE PUSH1 0x21 PUSH1 0x4 MSTORE PUSH1 0x24 PUSH1 0x0 REVERT JUMPDEST PUSH32 0x4E487B7100000000000000000000000000000000000000000000000000000000 PUSH1 0x0 MSTORE PUSH1 0x22 PUSH1 0x4 MSTORE PUSH1 0x24 PUSH1 0x0 REVERT JUMPDEST PUSH1 0x0 DUP1 REVERT JUMPDEST PUSH1 0x0 DUP1 REVERT JUMPDEST PUSH1 0x0 DUP1 REVERT JUMPDEST PUSH1 0x0 DUP1 REVERT JUMPDEST PUSH1 0x0 DUP1 REVERT JUMPDEST PUSH1 0x0 PUSH1 0x1F NOT PUSH1 0x1F DUP4 ADD AND SWAP1 POP SWAP2 SWAP1 POP JUMP JUMPDEST PUSH32 0x41647669736F727320676976696E6720616476696365206E65656420746F2073 PUSH1 0x0 DUP3 ADD MSTORE PUSH32 0x74616B65206174206C6561737420312065746865720000000000000000000000 PUSH1 0x20 DUP3 ADD MSTORE POP JUMP JUMPDEST PUSH32 0x496E766573746D656E742061647669636520616C726561647920726563656976 PUSH1 0x0 DUP3 ADD MSTORE PUSH32 0x6564000000000000000000000000000000000000000000000000000000000000 PUSH1 0x20 DUP3 ADD MSTORE POP JUMP JUMPDEST PUSH1 0x4 DUP2 LT PUSH2 0xD8F JUMPI PUSH2 0xD8E PUSH2 0xC58 JUMP JUMPDEST JUMPDEST POP JUMP JUMPDEST PUSH2 0xD9B DUP2 PUSH2 0xB4F JUMP JUMPDEST DUP2 EQ PUSH2 0xDA6 JUMPI PUSH1 0x0 DUP1 REVERT JUMPDEST POP JUMP INVALID LOG2 PUSH5 0x6970667358 0x22 SLT KECCAK256 PUSH25 0xD7F18395881B412EAD94799DB5794C40D511E6184F26647703 0x24 SHR 0xDC COINBASE JUMP 0xF9 PUSH5 0x736F6C6343 STOP ADDMOD SMOD STOP CALLER "
				},
				"gasEstimates": {
					"creation": {
						"codeDepositCost": "710200",
						"executionCost": "infinite",
						"totalCost": "infinite"
					},
					"external": {
						"InvestorAdvisorsMapping(uint16)": "infinite",
						"NativeBalance()": "2473",
						"_Investor()": "infinite",
						"makeRecommendation(string)": "infinite",
						"recommendationAccepted(uint16)": "infinite"
					}
				},
				"methodIdentifiers": {
					"InvestorAdvisorsMapping(uint16)": "f68e95a2",
					"NativeBalance()": "a46e0957",
					"_Investor()": "7ee4b26a",
					"makeRecommendation(string)": "1af76cc0",
					"recommendationAccepted(uint16)": "2d797b7a"
				}
			},
			"storageLayout": {
				"storage": [
					{
						"astId": 13,
						"contract": "contracts/InvestmentAdvice.sol:InvestmentAdvice",
						"label": "NativeBalance",
						"offset": 0,
						"slot": "0",
						"type": "t_uint256"
					},
					{
						"astId": 32,
						"contract": "contracts/InvestmentAdvice.sol:InvestmentAdvice",
						"label": "_Investor",
						"offset": 0,
						"slot": "1",
						"type": "t_struct(Investor)29_storage"
					},
					{
						"astId": 46,
						"contract": "contracts/InvestmentAdvice.sol:InvestmentAdvice",
						"label": "InvestorAdvisorsMapping",
						"offset": 0,
						"slot": "7",
						"type": "t_mapping(t_uint16,t_struct(Advisor)41_storage)"
					}
				],
				"types": {
					"t_address": {
						"encoding": "inplace",
						"label": "address",
						"numberOfBytes": "20"
					},
					"t_bool": {
						"encoding": "inplace",
						"label": "bool",
						"numberOfBytes": "1"
					},
					"t_enum(InvestmentAdviceContractStatus)6": {
						"encoding": "inplace",
						"label": "enum InvestmentAdvice.InvestmentAdviceContractStatus",
						"numberOfBytes": "1"
					},
					"t_mapping(t_uint16,t_struct(Advisor)41_storage)": {
						"encoding": "mapping",
						"key": "t_uint16",
						"label": "mapping(uint16 => struct InvestmentAdvice.Advisor)",
						"numberOfBytes": "32",
						"value": "t_struct(Advisor)41_storage"
					},
					"t_string_storage": {
						"encoding": "bytes",
						"label": "string",
						"numberOfBytes": "32"
					},
					"t_struct(Advisor)41_storage": {
						"encoding": "inplace",
						"label": "struct InvestmentAdvice.Advisor",
						"members": [
							{
								"astId": 34,
								"contract": "contracts/InvestmentAdvice.sol:InvestmentAdvice",
								"label": "AdvisorAddress",
								"offset": 0,
								"slot": "0",
								"type": "t_address"
							},
							{
								"astId": 36,
								"contract": "contracts/InvestmentAdvice.sol:InvestmentAdvice",
								"label": "AdvisorStake",
								"offset": 0,
								"slot": "1",
								"type": "t_uint256"
							},
							{
								"astId": 38,
								"contract": "contracts/InvestmentAdvice.sol:InvestmentAdvice",
								"label": "StockRecommendation",
								"offset": 0,
								"slot": "2",
								"type": "t_string_storage"
							},
							{
								"astId": 40,
								"contract": "contracts/InvestmentAdvice.sol:InvestmentAdvice",
								"label": "AcceptedStatus",
								"offset": 0,
								"slot": "3",
								"type": "t_bool"
							}
						],
						"numberOfBytes": "128"
					},
					"t_struct(Investor)29_storage": {
						"encoding": "inplace",
						"label": "struct InvestmentAdvice.Investor",
						"members": [
							{
								"astId": 15,
								"contract": "contracts/InvestmentAdvice.sol:InvestmentAdvice",
								"label": "InvestorAddress",
								"offset": 0,
								"slot": "0",
								"type": "t_address"
							},
							{
								"astId": 17,
								"contract": "contracts/InvestmentAdvice.sol:InvestmentAdvice",
								"label": "InvestorStake",
								"offset": 0,
								"slot": "1",
								"type": "t_uint256"
							},
							{
								"astId": 19,
								"contract": "contracts/InvestmentAdvice.sol:InvestmentAdvice",
								"label": "InvestmentAmount",
								"offset": 0,
								"slot": "2",
								"type": "t_uint256"
							},
							{
								"astId": 21,
								"contract": "contracts/InvestmentAdvice.sol:InvestmentAdvice",
								"label": "TimeDuration",
								"offset": 0,
								"slot": "3",
								"type": "t_uint256"
							},
							{
								"astId": 23,
								"contract": "contracts/InvestmentAdvice.sol:InvestmentAdvice",
								"label": "ExpectedReturnInPercentage",
								"offset": 0,
								"slot": "4",
								"type": "t_uint256"
							},
							{
								"astId": 25,
								"contract": "contracts/InvestmentAdvice.sol:InvestmentAdvice",
								"label": "RecommendationsCounter",
								"offset": 0,
								"slot": "5",
								"type": "t_uint16"
							},
							{
								"astId": 28,
								"contract": "contracts/InvestmentAdvice.sol:InvestmentAdvice",
								"label": "status",
								"offset": 2,
								"slot": "5",
								"type": "t_enum(InvestmentAdviceContractStatus)6"
							}
						],
						"numberOfBytes": "192"
					},
					"t_uint16": {
						"encoding": "inplace",
						"label": "uint16",
						"numberOfBytes": "2"
					},
					"t_uint256": {
						"encoding": "inplace",
						"label": "uint256",
						"numberOfBytes": "32"
					}
				}
			},
			"userdoc": {
				"kind": "user",
				"methods": {},
				"version": 1
			}
		}
	}
}